{
  "_format": "hh-sol-artifact-1",
  "contractName": "JAWS",
  "sourceName": "contracts/JAWS.sol",
  "abi": [
    {
      "inputs": [
        {
          "internalType": "address[]",
          "name": "_adminlist",
          "type": "address[]"
        },
        {
          "internalType": "address",
          "name": "_openSeaProxyRegistryAddress",
          "type": "address"
        }
      ],
      "stateMutability": "nonpayable",
      "type": "constructor"
    },
    {
      "inputs": [],
      "name": "InvalidSaleState",
      "type": "error"
    },
    {
      "inputs": [],
      "name": "InvalidStyle",
      "type": "error"
    },
    {
      "inputs": [],
      "name": "InvalidToken",
      "type": "error"
    },
    {
      "inputs": [],
      "name": "NotAdmin",
      "type": "error"
    },
    {
      "inputs": [],
      "name": "NotEnoughEther",
      "type": "error"
    },
    {
      "inputs": [],
      "name": "NotOnWhitelist",
      "type": "error"
    },
    {
      "inputs": [],
      "name": "SupplyLimit",
      "type": "error"
    },
    {
      "inputs": [],
      "name": "TooFewAdmins",
      "type": "error"
    },
    {
      "inputs": [],
      "name": "TransferFailed",
      "type": "error"
    },
    {
      "anonymous": false,
      "inputs": [
        {
          "indexed": false,
          "internalType": "address",
          "name": "addr",
          "type": "address"
        }
      ],
      "name": "AdminAddressAdded",
      "type": "event"
    },
    {
      "anonymous": false,
      "inputs": [
        {
          "indexed": false,
          "internalType": "address",
          "name": "addr",
          "type": "address"
        }
      ],
      "name": "AdminAddressRemoved",
      "type": "event"
    },
    {
      "anonymous": false,
      "inputs": [
        {
          "indexed": true,
          "internalType": "address",
          "name": "owner",
          "type": "address"
        },
        {
          "indexed": true,
          "internalType": "address",
          "name": "approved",
          "type": "address"
        },
        {
          "indexed": true,
          "internalType": "uint256",
          "name": "tokenId",
          "type": "uint256"
        }
      ],
      "name": "Approval",
      "type": "event"
    },
    {
      "anonymous": false,
      "inputs": [
        {
          "indexed": true,
          "internalType": "address",
          "name": "owner",
          "type": "address"
        },
        {
          "indexed": true,
          "internalType": "address",
          "name": "operator",
          "type": "address"
        },
        {
          "indexed": false,
          "internalType": "bool",
          "name": "approved",
          "type": "bool"
        }
      ],
      "name": "ApprovalForAll",
      "type": "event"
    },
    {
      "anonymous": false,
      "inputs": [
        {
          "indexed": false,
          "internalType": "string",
          "name": "",
          "type": "string"
        }
      ],
      "name": "BaseURIUpdated",
      "type": "event"
    },
    {
      "anonymous": false,
      "inputs": [
        {
          "indexed": true,
          "internalType": "address",
          "name": "minter",
          "type": "address"
        },
        {
          "indexed": true,
          "internalType": "uint256",
          "name": "tokenId",
          "type": "uint256"
        },
        {
          "indexed": true,
          "internalType": "uint8",
          "name": "style",
          "type": "uint8"
        },
        {
          "indexed": false,
          "internalType": "uint8",
          "name": "gender",
          "type": "uint8"
        }
      ],
      "name": "JAWSMintEvent",
      "type": "event"
    },
    {
      "anonymous": false,
      "inputs": [
        {
          "indexed": false,
          "internalType": "bool",
          "name": "",
          "type": "bool"
        }
      ],
      "name": "OpenSeaProxyActiveUpdated",
      "type": "event"
    },
    {
      "anonymous": false,
      "inputs": [
        {
          "indexed": true,
          "internalType": "address",
          "name": "previousOwner",
          "type": "address"
        },
        {
          "indexed": true,
          "internalType": "address",
          "name": "newOwner",
          "type": "address"
        }
      ],
      "name": "OwnershipTransferred",
      "type": "event"
    },
    {
      "anonymous": false,
      "inputs": [
        {
          "indexed": false,
          "internalType": "enum State",
          "name": "",
          "type": "uint8"
        }
      ],
      "name": "SaleStateUpdated",
      "type": "event"
    },
    {
      "anonymous": false,
      "inputs": [
        {
          "indexed": true,
          "internalType": "address",
          "name": "from",
          "type": "address"
        },
        {
          "indexed": true,
          "internalType": "address",
          "name": "to",
          "type": "address"
        },
        {
          "indexed": true,
          "internalType": "uint256",
          "name": "tokenId",
          "type": "uint256"
        }
      ],
      "name": "Transfer",
      "type": "event"
    },
    {
      "anonymous": false,
      "inputs": [
        {
          "indexed": false,
          "internalType": "bytes32",
          "name": "",
          "type": "bytes32"
        }
      ],
      "name": "WhitelistRootUpdated",
      "type": "event"
    },
    {
      "inputs": [],
      "name": "DISCOUNT",
      "outputs": [
        {
          "internalType": "uint256",
          "name": "",
          "type": "uint256"
        }
      ],
      "stateMutability": "view",
      "type": "function"
    },
    {
      "inputs": [],
      "name": "DISCOUNT_MINT_MAX",
      "outputs": [
        {
          "internalType": "uint16",
          "name": "",
          "type": "uint16"
        }
      ],
      "stateMutability": "view",
      "type": "function"
    },
    {
      "inputs": [],
      "name": "GENDER_FEMALE",
      "outputs": [
        {
          "internalType": "uint8",
          "name": "",
          "type": "uint8"
        }
      ],
      "stateMutability": "view",
      "type": "function"
    },
    {
      "inputs": [],
      "name": "GENDER_MALE",
      "outputs": [
        {
          "internalType": "uint8",
          "name": "",
          "type": "uint8"
        }
      ],
      "stateMutability": "view",
      "type": "function"
    },
    {
      "inputs": [],
      "name": "STYLE_FC",
      "outputs": [
        {
          "internalType": "uint8",
          "name": "",
          "type": "uint8"
        }
      ],
      "stateMutability": "view",
      "type": "function"
    },
    {
      "inputs": [],
      "name": "STYLE_HR",
      "outputs": [
        {
          "internalType": "uint8",
          "name": "",
          "type": "uint8"
        }
      ],
      "stateMutability": "view",
      "type": "function"
    },
    {
      "inputs": [],
      "name": "STYLE_JAWS",
      "outputs": [
        {
          "internalType": "uint8",
          "name": "",
          "type": "uint8"
        }
      ],
      "stateMutability": "view",
      "type": "function"
    },
    {
      "inputs": [],
      "name": "WHITELIST_MINT_MAX",
      "outputs": [
        {
          "internalType": "uint8",
          "name": "",
          "type": "uint8"
        }
      ],
      "stateMutability": "view",
      "type": "function"
    },
    {
      "inputs": [
        {
          "internalType": "string",
          "name": "_inputURI",
          "type": "string"
        }
      ],
      "name": "_setbaseURI",
      "outputs": [],
      "stateMutability": "nonpayable",
      "type": "function"
    },
    {
      "inputs": [
        {
          "internalType": "address",
          "name": "_addr",
          "type": "address"
        }
      ],
      "name": "addAddressToAdminlist",
      "outputs": [
        {
          "internalType": "bool",
          "name": "success",
          "type": "bool"
        }
      ],
      "stateMutability": "nonpayable",
      "type": "function"
    },
    {
      "inputs": [
        {
          "internalType": "uint256",
          "name": "",
          "type": "uint256"
        }
      ],
      "name": "adminlist",
      "outputs": [
        {
          "internalType": "address",
          "name": "",
          "type": "address"
        }
      ],
      "stateMutability": "view",
      "type": "function"
    },
    {
      "inputs": [
        {
          "internalType": "address",
          "name": "to",
          "type": "address"
        },
        {
          "internalType": "uint256",
          "name": "tokenId",
          "type": "uint256"
        }
      ],
      "name": "approve",
      "outputs": [],
      "stateMutability": "nonpayable",
      "type": "function"
    },
    {
      "inputs": [
        {
          "internalType": "address",
          "name": "owner",
          "type": "address"
        }
      ],
      "name": "balanceOf",
      "outputs": [
        {
          "internalType": "uint256",
          "name": "",
          "type": "uint256"
        }
      ],
      "stateMutability": "view",
      "type": "function"
    },
    {
      "inputs": [
        {
          "internalType": "uint256",
          "name": "tokenId",
          "type": "uint256"
        }
      ],
      "name": "getApproved",
      "outputs": [
        {
          "internalType": "address",
          "name": "",
          "type": "address"
        }
      ],
      "stateMutability": "view",
      "type": "function"
    },
    {
      "inputs": [
        {
          "components": [
            {
              "internalType": "uint8",
              "name": "tokenStyle",
              "type": "uint8"
            },
            {
              "internalType": "uint8",
              "name": "gender",
              "type": "uint8"
            },
            {
              "internalType": "uint16",
              "name": "amount",
              "type": "uint16"
            }
          ],
          "internalType": "struct MintData",
          "name": "_data",
          "type": "tuple"
        }
      ],
      "name": "getPrice",
      "outputs": [
        {
          "internalType": "uint256",
          "name": "",
          "type": "uint256"
        }
      ],
      "stateMutability": "view",
      "type": "function"
    },
    {
      "inputs": [
        {
          "internalType": "uint8",
          "name": "_tokenStyle",
          "type": "uint8"
        }
      ],
      "name": "getStyleSold",
      "outputs": [
        {
          "internalType": "uint16",
          "name": "",
          "type": "uint16"
        }
      ],
      "stateMutability": "view",
      "type": "function"
    },
    {
      "inputs": [
        {
          "internalType": "uint8",
          "name": "_tokenStyle",
          "type": "uint8"
        }
      ],
      "name": "getStyleTotal",
      "outputs": [
        {
          "internalType": "uint16",
          "name": "",
          "type": "uint16"
        }
      ],
      "stateMutability": "view",
      "type": "function"
    },
    {
      "inputs": [
        {
          "internalType": "address",
          "name": "_owner",
          "type": "address"
        },
        {
          "internalType": "address",
          "name": "_operator",
          "type": "address"
        }
      ],
      "name": "isApprovedForAll",
      "outputs": [
        {
          "internalType": "bool",
          "name": "",
          "type": "bool"
        }
      ],
      "stateMutability": "view",
      "type": "function"
    },
    {
      "inputs": [],
      "name": "isOpenSeaProxyActive",
      "outputs": [
        {
          "internalType": "bool",
          "name": "",
          "type": "bool"
        }
      ],
      "stateMutability": "view",
      "type": "function"
    },
    {
      "inputs": [
        {
          "components": [
            {
              "internalType": "uint8",
              "name": "tokenStyle",
              "type": "uint8"
            },
            {
              "internalType": "uint8",
              "name": "gender",
              "type": "uint8"
            },
            {
              "internalType": "uint16",
              "name": "amount",
              "type": "uint16"
            }
          ],
          "internalType": "struct MintData",
          "name": "_data",
          "type": "tuple"
        }
      ],
      "name": "mint",
      "outputs": [],
      "stateMutability": "payable",
      "type": "function"
    },
    {
      "inputs": [
        {
          "components": [
            {
              "internalType": "uint8",
              "name": "tokenStyle",
              "type": "uint8"
            },
            {
              "internalType": "uint8",
              "name": "gender",
              "type": "uint8"
            },
            {
              "internalType": "uint16",
              "name": "amount",
              "type": "uint16"
            }
          ],
          "internalType": "struct MintData",
          "name": "_data",
          "type": "tuple"
        }
      ],
      "name": "mintAdmin",
      "outputs": [],
      "stateMutability": "nonpayable",
      "type": "function"
    },
    {
      "inputs": [
        {
          "components": [
            {
              "internalType": "uint8",
              "name": "tokenStyle",
              "type": "uint8"
            },
            {
              "internalType": "uint8",
              "name": "gender",
              "type": "uint8"
            },
            {
              "internalType": "uint16",
              "name": "amount",
              "type": "uint16"
            }
          ],
          "internalType": "struct MintData",
          "name": "_data",
          "type": "tuple"
        },
        {
          "internalType": "address",
          "name": "_target",
          "type": "address"
        }
      ],
      "name": "mintAdminToTarget",
      "outputs": [],
      "stateMutability": "nonpayable",
      "type": "function"
    },
    {
      "inputs": [
        {
          "components": [
            {
              "internalType": "uint8",
              "name": "tokenStyle",
              "type": "uint8"
            },
            {
              "internalType": "uint8",
              "name": "gender",
              "type": "uint8"
            },
            {
              "internalType": "uint16",
              "name": "amount",
              "type": "uint16"
            }
          ],
          "internalType": "struct MintData",
          "name": "_data",
          "type": "tuple"
        },
        {
          "internalType": "bytes32[]",
          "name": "_proof",
          "type": "bytes32[]"
        }
      ],
      "name": "mintWhitelist",
      "outputs": [],
      "stateMutability": "payable",
      "type": "function"
    },
    {
      "inputs": [],
      "name": "name",
      "outputs": [
        {
          "internalType": "string",
          "name": "",
          "type": "string"
        }
      ],
      "stateMutability": "view",
      "type": "function"
    },
    {
      "inputs": [
        {
          "internalType": "address",
          "name": "_addr",
          "type": "address"
        }
      ],
      "name": "onList",
      "outputs": [
        {
          "internalType": "bool",
          "name": "",
          "type": "bool"
        }
      ],
      "stateMutability": "view",
      "type": "function"
    },
    {
      "inputs": [],
      "name": "openSeaProxyRegistryAddress",
      "outputs": [
        {
          "internalType": "address",
          "name": "",
          "type": "address"
        }
      ],
      "stateMutability": "view",
      "type": "function"
    },
    {
      "inputs": [],
      "name": "owner",
      "outputs": [
        {
          "internalType": "address",
          "name": "",
          "type": "address"
        }
      ],
      "stateMutability": "view",
      "type": "function"
    },
    {
      "inputs": [
        {
          "internalType": "uint256",
          "name": "tokenId",
          "type": "uint256"
        }
      ],
      "name": "ownerOf",
      "outputs": [
        {
          "internalType": "address",
          "name": "",
          "type": "address"
        }
      ],
      "stateMutability": "view",
      "type": "function"
    },
    {
      "inputs": [
        {
          "internalType": "address",
          "name": "_addr",
          "type": "address"
        }
      ],
      "name": "removeAddressFromAdminlist",
      "outputs": [
        {
          "internalType": "bool",
          "name": "success",
          "type": "bool"
        }
      ],
      "stateMutability": "nonpayable",
      "type": "function"
    },
    {
      "inputs": [],
      "name": "renounceOwnership",
      "outputs": [],
      "stateMutability": "nonpayable",
      "type": "function"
    },
    {
      "inputs": [
        {
          "internalType": "uint256",
          "name": "_id",
          "type": "uint256"
        },
        {
          "internalType": "uint256",
          "name": "_salePrice",
          "type": "uint256"
        }
      ],
      "name": "royaltyInfo",
      "outputs": [
        {
          "internalType": "address",
          "name": "",
          "type": "address"
        },
        {
          "internalType": "uint256",
          "name": "",
          "type": "uint256"
        }
      ],
      "stateMutability": "view",
      "type": "function"
    },
    {
      "inputs": [
        {
          "internalType": "address",
          "name": "from",
          "type": "address"
        },
        {
          "internalType": "address",
          "name": "to",
          "type": "address"
        },
        {
          "internalType": "uint256",
          "name": "tokenId",
          "type": "uint256"
        }
      ],
      "name": "safeTransferFrom",
      "outputs": [],
      "stateMutability": "nonpayable",
      "type": "function"
    },
    {
      "inputs": [
        {
          "internalType": "address",
          "name": "from",
          "type": "address"
        },
        {
          "internalType": "address",
          "name": "to",
          "type": "address"
        },
        {
          "internalType": "uint256",
          "name": "tokenId",
          "type": "uint256"
        },
        {
          "internalType": "bytes",
          "name": "_data",
          "type": "bytes"
        }
      ],
      "name": "safeTransferFrom",
      "outputs": [],
      "stateMutability": "nonpayable",
      "type": "function"
    },
    {
      "inputs": [],
      "name": "saleState",
      "outputs": [
        {
          "internalType": "enum State",
          "name": "",
          "type": "uint8"
        }
      ],
      "stateMutability": "view",
      "type": "function"
    },
    {
      "inputs": [
        {
          "internalType": "address",
          "name": "operator",
          "type": "address"
        },
        {
          "internalType": "bool",
          "name": "approved",
          "type": "bool"
        }
      ],
      "name": "setApprovalForAll",
      "outputs": [],
      "stateMutability": "nonpayable",
      "type": "function"
    },
    {
      "inputs": [
        {
          "internalType": "bool",
          "name": "_isOpenSeaProxyActive",
          "type": "bool"
        }
      ],
      "name": "setIsOpenSeaProxyActive",
      "outputs": [],
      "stateMutability": "nonpayable",
      "type": "function"
    },
    {
      "inputs": [
        {
          "internalType": "enum State",
          "name": "_saleState",
          "type": "uint8"
        }
      ],
      "name": "setSaleState",
      "outputs": [],
      "stateMutability": "nonpayable",
      "type": "function"
    },
    {
      "inputs": [
        {
          "internalType": "bytes32",
          "name": "_whitelistRoot",
          "type": "bytes32"
        }
      ],
      "name": "setWhitelistRoot",
      "outputs": [],
      "stateMutability": "nonpayable",
      "type": "function"
    },
    {
      "inputs": [
        {
          "internalType": "bytes4",
          "name": "interfaceId",
          "type": "bytes4"
        }
      ],
      "name": "supportsInterface",
      "outputs": [
        {
          "internalType": "bool",
          "name": "",
          "type": "bool"
        }
      ],
      "stateMutability": "view",
      "type": "function"
    },
    {
      "inputs": [],
      "name": "symbol",
      "outputs": [
        {
          "internalType": "string",
          "name": "",
          "type": "string"
        }
      ],
      "stateMutability": "view",
      "type": "function"
    },
    {
      "inputs": [
        {
          "internalType": "uint256",
          "name": "index",
          "type": "uint256"
        }
      ],
      "name": "tokenByIndex",
      "outputs": [
        {
          "internalType": "uint256",
          "name": "",
          "type": "uint256"
        }
      ],
      "stateMutability": "view",
      "type": "function"
    },
    {
      "inputs": [
        {
          "internalType": "address",
          "name": "owner",
          "type": "address"
        },
        {
          "internalType": "uint256",
          "name": "index",
          "type": "uint256"
        }
      ],
      "name": "tokenOfOwnerByIndex",
      "outputs": [
        {
          "internalType": "uint256",
          "name": "",
          "type": "uint256"
        }
      ],
      "stateMutability": "view",
      "type": "function"
    },
    {
      "inputs": [
        {
          "internalType": "uint256",
          "name": "_id",
          "type": "uint256"
        }
      ],
      "name": "tokenURI",
      "outputs": [
        {
          "internalType": "string",
          "name": "",
          "type": "string"
        }
      ],
      "stateMutability": "view",
      "type": "function"
    },
    {
      "inputs": [],
      "name": "totalSupply",
      "outputs": [
        {
          "internalType": "uint256",
          "name": "",
          "type": "uint256"
        }
      ],
      "stateMutability": "view",
      "type": "function"
    },
    {
      "inputs": [
        {
          "internalType": "address",
          "name": "from",
          "type": "address"
        },
        {
          "internalType": "address",
          "name": "to",
          "type": "address"
        },
        {
          "internalType": "uint256",
          "name": "tokenId",
          "type": "uint256"
        }
      ],
      "name": "transferFrom",
      "outputs": [],
      "stateMutability": "nonpayable",
      "type": "function"
    },
    {
      "inputs": [
        {
          "internalType": "address",
          "name": "newOwner",
          "type": "address"
        }
      ],
      "name": "transferOwnership",
      "outputs": [],
      "stateMutability": "nonpayable",
      "type": "function"
    },
    {
      "inputs": [
        {
          "internalType": "address",
          "name": "",
          "type": "address"
        }
      ],
      "name": "whitelistMinterBalance",
      "outputs": [
        {
          "internalType": "uint16",
          "name": "",
          "type": "uint16"
        }
      ],
      "stateMutability": "view",
      "type": "function"
    },
    {
      "inputs": [],
      "name": "whitelistRoot",
      "outputs": [
        {
          "internalType": "bytes32",
          "name": "",
          "type": "bytes32"
        }
      ],
      "stateMutability": "view",
      "type": "function"
    },
    {
      "inputs": [],
      "name": "withdraw",
      "outputs": [],
      "stateMutability": "nonpayable",
      "type": "function"
    },
    {
      "inputs": [
        {
          "internalType": "contract IERC20",
          "name": "token",
          "type": "address"
        }
      ],
      "name": "withdrawTokens",
      "outputs": [],
      "stateMutability": "nonpayable",
      "type": "function"
    },
    {
      "stateMutability": "payable",
      "type": "receive"
    }
  ],
  "bytecode": "0x60a0604052600d80546001919060ff1916828002179055506012805460ff191660011790553480156200003157600080fd5b5060405162003d1238038062003d128339810160408190526200005491620006bc565b604051806040016040528060048152602001631d195cdd60e21b815250604051806040016040528060048152602001631e13f4d160e31b8152508160009080519060200190620000a6929190620005e8565b508051620000bc906001906020840190620005e8565b505050620000d9620000d36200040560201b60201c565b62000409565b6001600b55620000e9336200045b565b815160005b8161ffff168161ffff1610156200013a5762000130848261ffff16815181106200011c576200011c620007a2565b6020026020010151620004ce60201b60201c565b50600101620000ee565b506001600160a01b03821660809081526040805160e081018252600d60a082019081526c2337bab73232b9399021b63ab160991b60c0830152815260016020808301829052606493830193909352600060608301819052938201849052909252600f8152815180517f169f97de0d9a84d840042b17d3c6b9638b3d6fd9024c9eb0c7a306a17b49f88f92620001d4928492910190620005e8565b5060208281015160018301805460408087015160608089015161ffff9081166401000000000261ffff60201b19938216620100000263ffffffff199096169190971617939093171693909317909155608094850151600294850155815160e081018352600c60a082019081526b4869676820526f6c6c65727360a01b60c08301528152606581850152610912928101929092526000908201819052673782dace9d9000009482019490945291909252600f82528051805191927fa74ba3945261e09fde15ba3db55005b205e61eeb4ad811ac0faa2b315bffeead92620002be9284920190620005e8565b5060208281015160018301805460408087015160608089015161ffff9081166401000000000261ffff60201b19938216620100000263ffffffff199096169190971617939093171693909317909155608094850151600290940193909355805160e081018252600460a08201908152634a41575360e01b60c0830152815261091381840152612773918101919091526000928101839052670214e8348c4f0000938101939093526003909152600f8152815180517f45f76dafbbad695564362934e24d72eedc57f9fc1a65f39bca62176cc829682892620003a4928492910190620005e8565b5060208201516001820180546040850151606086015161ffff9081166401000000000261ffff60201b19928216620100000263ffffffff199094169190951617919091171691909117905560809091015160029091015550620007f5915050565b3390565b600a80546001600160a01b038381166001600160a01b0319831681179093556040519116919082907f8be0079c531659141344cd1fd0a4f28419497f9722a3daafe3b4186f6b6457e090600090a35050565b600c80546001810182556000919091527fdf6966c971051c3d54ec59162606531493a51404a002842f56009d7e5cf4a8c70180546001600160a01b0319166001600160a01b03831690811790915560405190815260008051602062003cf28339815191529060200160405180910390a150565b6000620004db3362000582565b620004f957604051637bfa4b9f60e01b815260040160405180910390fd5b620005048262000582565b6200057d57600c80546001810182556000919091527fdf6966c971051c3d54ec59162606531493a51404a002842f56009d7e5cf4a8c70180546001600160a01b0319166001600160a01b03841690811790915560405190815260008051602062003cf28339815191529060200160405180910390a15060015b919050565b600c546000908190815b81811015620005df57846001600160a01b0316600c8281548110620005b557620005b5620007a2565b6000918252602090912001546001600160a01b03161415620005d657600192505b6001016200058c565b50909392505050565b828054620005f690620007b8565b90600052602060002090601f0160209004810192826200061a576000855562000665565b82601f106200063557805160ff191683800117855562000665565b8280016001018555821562000665579182015b828111156200066557825182559160200191906001019062000648565b506200067392915062000677565b5090565b5b8082111562000673576000815560010162000678565b634e487b7160e01b600052604160045260246000fd5b80516001600160a01b03811681146200057d57600080fd5b60008060408385031215620006d057600080fd5b82516001600160401b0380821115620006e857600080fd5b818501915085601f830112620006fd57600080fd5b81516020828211156200071457620007146200068e565b8160051b604051601f19603f830116810181811086821117156200073c576200073c6200068e565b6040529283528183019350848101820192898411156200075b57600080fd5b948201945b8386101562000784576200077486620006a4565b8552948201949382019362000760565b9650620007959050878201620006a4565b9450505050509250929050565b634e487b7160e01b600052603260045260246000fd5b600181811c90821680620007cd57607f821691505b60208210811415620007ef57634e487b7160e01b600052602260045260246000fd5b50919050565b6080516134da62000818600039600081816107e00152611b2b01526134da6000f3fe60806040526004361061032d5760003560e01c80636c529a26116101a5578063b7f47d32116100ec578063e43082f711610095578063e985e9c51161006f578063e985e9c5146108e2578063eebb9eb714610902578063f2fde38b14610915578063f5aa406d1461093557600080fd5b8063e43082f7146108a2578063e44451ba146108c2578063e6d3216d146106ab57600080fd5b8063c87b56dd116100c6578063c87b56dd14610842578063d32c05f014610862578063e2e8337c1461088257600080fd5b8063b7f47d32146107ce578063b88d4fde14610802578063b994fb991461082257600080fd5b80637f091f061161014e578063a22cb46511610128578063a22cb4651461078e578063a78843f914610715578063b5f3e71a146107ae57600080fd5b80637f091f061461072a5780638da5cb5b1461075b57806395d89b411461077957600080fd5b806370a082311161017f57806370a08231146106e0578063715018a6146107005780637bc45f071461071557600080fd5b80636c529a26146106915780636e4f2c52146106ab5780636f626eb3146106c057600080fd5b80632c80d14c116102745780634985fb5b1161021d5780635a67de07116101f75780635a67de071461060a578063603f4d521461062a5780636352211e14610651578063646f21271461067157600080fd5b80634985fb5b146105aa57806349df728c146105ca5780634f6ccce7146105ea57600080fd5b80633b32c74d1161024e5780633b32c74d146105605780633ccfd60b1461057557806342842e0e1461058a57600080fd5b80632c80d14c1461050a5780632f745c591461052a578063386bfc981461054a57600080fd5b806313118e50116102d65780632a2732d4116102b05780632a2732d4146104845780632a55205a146104a45780632b03a4aa146104e357600080fd5b806313118e501461043c57806318160ddd1461044f57806323b872dd1461046457600080fd5b8063081812fc11610307578063081812fc146103b9578063095ea7b3146103f15780630d37b4571461041357600080fd5b806301ffc9a7146103395780630310b0621461036e57806306fdde031461039757600080fd5b3661033457005b600080fd5b34801561034557600080fd5b50610359610354366004612bab565b610955565b60405190151581526020015b60405180910390f35b34801561037a57600080fd5b5061038461030981565b60405161ffff9091168152602001610365565b3480156103a357600080fd5b506103ac610980565b6040516103659190612c20565b3480156103c557600080fd5b506103d96103d4366004612c33565b610a12565b6040516001600160a01b039091168152602001610365565b3480156103fd57600080fd5b5061041161040c366004612c61565b610aac565b005b34801561041f57600080fd5b5061042e66b1a2bc2ec5000081565b604051908152602001610365565b61041161044a366004612c9f565b610bc2565b34801561045b57600080fd5b5060085461042e565b34801561047057600080fd5b5061041161047f366004612d26565b610d8d565b34801561049057600080fd5b5061038461049f366004612d78565b610dbe565b3480156104b057600080fd5b506104c46104bf366004612d93565b610e32565b604080516001600160a01b039093168352602083019190915201610365565b3480156104ef57600080fd5b506104f8600581565b60405160ff9091168152602001610365565b34801561051657600080fd5b5061042e610525366004612dcb565b610e8d565b34801561053657600080fd5b5061042e610545366004612c61565b610f40565b34801561055657600080fd5b5061042e60105481565b34801561056c57600080fd5b506104f8600381565b34801561058157600080fd5b50610411610fd6565b34801561059657600080fd5b506104116105a5366004612d26565b611068565b3480156105b657600080fd5b506104116105c5366004612eb6565b611083565b3480156105d657600080fd5b506104116105e5366004612eff565b6110f8565b3480156105f657600080fd5b5061042e610605366004612c33565b611226565b34801561061657600080fd5b50610411610625366004612f1c565b6112b9565b34801561063657600080fd5b50600d546106449060ff1681565b6040516103659190612f53565b34801561065d57600080fd5b506103d961066c366004612c33565b61133a565b34801561067d57600080fd5b506103d961068c366004612c33565b6113b1565b34801561069d57600080fd5b506012546103599060ff1681565b3480156106b757600080fd5b506104f8600281565b3480156106cc57600080fd5b506103596106db366004612eff565b6113db565b3480156106ec57600080fd5b5061042e6106fb366004612eff565b61143b565b34801561070c57600080fd5b506104116114c2565b34801561072157600080fd5b506104f8600181565b34801561073657600080fd5b50610384610745366004612eff565b60116020526000908152604090205461ffff1681565b34801561076757600080fd5b50600a546001600160a01b03166103d9565b34801561078557600080fd5b506103ac611528565b34801561079a57600080fd5b506104116107a9366004612f89565b611537565b3480156107ba57600080fd5b506103596107c9366004612eff565b611542565b3480156107da57600080fd5b506103d97f000000000000000000000000000000000000000000000000000000000000000081565b34801561080e57600080fd5b5061041161081d366004612fc2565b611601565b34801561082e57600080fd5b5061041161083d366004613042565b611639565b34801561084e57600080fd5b506103ac61085d366004612c33565b611715565b34801561086e57600080fd5b5061038461087d366004612d78565b61177e565b34801561088e57600080fd5b5061041161089d36600461305e565b611806565b3480156108ae57600080fd5b506104116108bd36600461308b565b6118e8565b3480156108ce57600080fd5b506103596108dd366004612eff565b611989565b3480156108ee57600080fd5b506103596108fd3660046130a8565b611b23565b610411610910366004613042565b611c10565b34801561092157600080fd5b50610411610930366004612eff565b611d37565b34801561094157600080fd5b50610411610950366004612c33565b611dff565b60006001600160e01b0319821663152a902d60e11b148061097a575061097a82611e5a565b92915050565b60606000805461098f906130d6565b80601f01602080910402602001604051908101604052809291908181526020018280546109bb906130d6565b8015610a085780601f106109dd57610100808354040283529160200191610a08565b820191906000526020600020905b8154815290600101906020018083116109eb57829003601f168201915b5050505050905090565b6000818152600260205260408120546001600160a01b0316610a905760405162461bcd60e51b815260206004820152602c60248201527f4552433732313a20617070726f76656420717565727920666f72206e6f6e657860448201526b34b9ba32b73a103a37b5b2b760a11b60648201526084015b60405180910390fd5b506000908152600460205260409020546001600160a01b031690565b6000610ab78261133a565b9050806001600160a01b0316836001600160a01b03161415610b255760405162461bcd60e51b815260206004820152602160248201527f4552433732313a20617070726f76616c20746f2063757272656e74206f776e656044820152603960f91b6064820152608401610a87565b336001600160a01b0382161480610b415750610b418133611b23565b610bb35760405162461bcd60e51b815260206004820152603860248201527f4552433732313a20617070726f76652063616c6c6572206973206e6f74206f7760448201527f6e6572206e6f7220617070726f76656420666f7220616c6c00000000000000006064820152608401610a87565b610bbd8383611e7f565b505050565b8181601054610c39838380806020026020016040519081016040528093929190818152602001838360200280828437600092019190915250506040516bffffffffffffffffffffffff193360601b166020820152859250603401905060405160208183030381529060405280519060200120611eed565b610c565760405163522fc3bd60e01b815260040160405180910390fd5b6002600d5460ff166005811115610c6f57610c6f612f3d565b14610c8d57604051633482502f60e01b815260040160405180910390fd5b610c9c36879003870187612dcb565b805160ff16600214801590610cb65750805160ff16600314155b15610cd457604051630f10b1bd60e21b815260040160405180910390fd5b8051610cdf90610dbe565b8151610cea9061177e565b610cf49190613121565b61ffff16816040015161ffff161115610d2057604051631594bea360e31b815260040160405180910390fd5b610d2f36889003880188612dcb565b806040015161ffff16610d4182610e8d565b610d4b9190613144565b341015610d6b57604051638a0d377960e01b815260040160405180910390fd5b610d83610d7d368a90038a018a612dcb565b33611f03565b5050505050505050565b610d97338261208f565b610db35760405162461bcd60e51b8152600401610a8790613163565b610bbd83838361215e565b60008160ff8116600114801590610dd9575060ff8116600214155b8015610de9575060ff8116600314155b15610e0757604051630f10b1bd60e21b815260040160405180910390fd5b60ff83166000908152600f6020526040902060010154640100000000900461ffff1691505b50919050565b6000808381610e408261133a565b6001600160a01b03161415610e685760405163c1ab6dc160e01b815260040160405180910390fd5b306103e8610e77866019613144565b610e8191906131ca565b92509250509250929050565b805160009081906002600d5460ff166005811115610ead57610ead612f3d565b148015610ebd575060ff81166003145b8015610eec575060ff81166000908152600f602052604090206001015461030964010000000090910461ffff16105b15610f205760ff81166000908152600f6020526040902060020154610f199066b1a2bc2ec50000906131de565b9150610f39565b60ff81166000908152600f602052604090206002015491505b5092915050565b6000610f4b8361143b565b8210610fad5760405162461bcd60e51b815260206004820152602b60248201527f455243373231456e756d657261626c653a206f776e657220696e646578206f7560448201526a74206f6620626f756e647360a81b6064820152608401610a87565b506001600160a01b03919091166000908152600660209081526040808320938352929052205490565b610fdf336113db565b610ffc57604051637bfa4b9f60e01b815260040160405180910390fd5b604051600090339047908381818185875af1925050503d806000811461103e576040519150601f19603f3d011682016040523d82523d6000602084013e611043565b606091505b5050905080611065576040516312171d8360e31b815260040160405180910390fd5b50565b610bbd83838360405180602001604052806000815250611601565b61108c336113db565b6110a957604051637bfa4b9f60e01b815260040160405180910390fd5b80516110bc90600e906020840190612afc565b507f6741b2fc379fad678116fe3d4d4b9a1a184ab53ba36b86ad0fa66340b1ab41ad600e6040516110ed91906131f5565b60405180910390a150565b611101336113db565b61111e57604051637bfa4b9f60e01b815260040160405180910390fd5b6040516370a0823160e01b81523060048201526000906001600160a01b0383169063a9059cbb90339083906370a0823190602401602060405180830381865afa15801561116f573d6000803e3d6000fd5b505050506040513d601f19601f82011682018060405250810190611193919061327a565b6040516001600160e01b031960e085901b1681526001600160a01b03909216600483015260248201526044016020604051808303816000875af11580156111de573d6000803e3d6000fd5b505050506040513d601f19601f820116820180604052508101906112029190613293565b905080611222576040516312171d8360e31b815260040160405180910390fd5b5050565b600061123160085490565b82106112945760405162461bcd60e51b815260206004820152602c60248201527f455243373231456e756d657261626c653a20676c6f62616c20696e646578206f60448201526b7574206f6620626f756e647360a01b6064820152608401610a87565b600882815481106112a7576112a76132b0565b90600052602060002001549050919050565b6112c2336113db565b6112df57604051637bfa4b9f60e01b815260040160405180910390fd5b600d805482919060ff191660018360058111156112fe576112fe612f3d565b0217905550600d546040517fcd7cbf1a81c5c14aaff5dfe45f07363084bd57b27049b77adca59e1b75b40d6e916110ed9160ff90911690612f53565b6000818152600260205260408120546001600160a01b03168061097a5760405162461bcd60e51b815260206004820152602960248201527f4552433732313a206f776e657220717565727920666f72206e6f6e657869737460448201526832b73a103a37b5b2b760b91b6064820152608401610a87565b600c81815481106113c157600080fd5b6000918252602090912001546001600160a01b0316905081565b600c546000908190815b8181101561143257846001600160a01b0316600c828154811061140a5761140a6132b0565b6000918252602090912001546001600160a01b0316141561142a57600192505b6001016113e5565b50909392505050565b60006001600160a01b0382166114a65760405162461bcd60e51b815260206004820152602a60248201527f4552433732313a2062616c616e636520717565727920666f7220746865207a65604482015269726f206164647265737360b01b6064820152608401610a87565b506001600160a01b031660009081526003602052604090205490565b600a546001600160a01b0316331461151c5760405162461bcd60e51b815260206004820181905260248201527f4f776e61626c653a2063616c6c6572206973206e6f7420746865206f776e65726044820152606401610a87565b6115266000612305565b565b60606001805461098f906130d6565b611222338383612357565b600061154d336113db565b61156a57604051637bfa4b9f60e01b815260040160405180910390fd5b611573826113db565b6115fc57600c80546001810182556000919091527fdf6966c971051c3d54ec59162606531493a51404a002842f56009d7e5cf4a8c70180546001600160a01b0319166001600160a01b0384169081179091556040519081527f089aa9975328102f8cdff40d2e2b75ad3b940f83f42c2e13c43ed875ff8f046a9060200160405180910390a15060015b919050565b61160b338361208f565b6116275760405162461bcd60e51b8152600401610a8790613163565b61163384848484612426565b50505050565b611642336113db565b61165f57604051637bfa4b9f60e01b815260040160405180910390fd5b61166e36829003820182612dcb565b805160ff166001148015906116885750805160ff16600214155b80156116995750805160ff16600314155b156116b757604051630f10b1bd60e21b815260040160405180910390fd5b80516116c290610dbe565b81516116cd9061177e565b6116d79190613121565b61ffff16816040015161ffff16111561170357604051631594bea360e31b815260040160405180910390fd5b611222610d7d36849003840184612dcb565b60608160006117238261133a565b6001600160a01b0316141561174b5760405163c1ab6dc160e01b815260040160405180910390fd5b600e61175684612459565b6040516020016117679291906132c6565b604051602081830303815290604052915050919050565b60008160ff8116600114801590611799575060ff8116600214155b80156117a9575060ff8116600314155b156117c757604051630f10b1bd60e21b815260040160405180910390fd5b60ff83166000908152600f60205260409020600101546117f49061ffff8082169162010000900416613121565b6117ff906001613359565b9392505050565b61180f336113db565b61182c57604051637bfa4b9f60e01b815260040160405180910390fd5b61183b36839003830183612dcb565b805160ff166001148015906118555750805160ff16600214155b80156118665750805160ff16600314155b1561188457604051630f10b1bd60e21b815260040160405180910390fd5b805161188f90610dbe565b815161189a9061177e565b6118a49190613121565b61ffff16816040015161ffff1611156118d057604051631594bea360e31b815260040160405180910390fd5b610bbd6118e236859003850185612dcb565b83611f03565b600a546001600160a01b031633146119425760405162461bcd60e51b815260206004820181905260248201527f4f776e61626c653a2063616c6c6572206973206e6f7420746865206f776e65726044820152606401610a87565b6012805460ff191682151590811790915560405160ff909116151581527fde26225db7392d7b072e2b55b58657ff73240030614068c4345d9d6a6cc9ef02906020016110ed565b6000611994336113db565b6119b157604051637bfa4b9f60e01b815260040160405180910390fd5b6119ba826113db565b156115fc57600c54600181116119e35760405163a828df7560e01b815260040160405180910390fd5b60005b81811015611add57836001600160a01b0316600c8281548110611a0b57611a0b6132b0565b6000918252602090912001546001600160a01b03161415611ad557600c611a336001846131de565b81548110611a4357611a436132b0565b600091825260209091200154600c80546001600160a01b039092169183908110611a6f57611a6f6132b0565b9060005260206000200160006101000a8154816001600160a01b0302191690836001600160a01b03160217905550600c805480611aae57611aae61337f565b600082815260209020810160001990810180546001600160a01b0319169055019055611add565b6001016119e6565b506040516001600160a01b03841681527fc41dab03d4639245f86ebd733046feb495209977c224698a4d1318fec207af5a9060200160405180910390a150600192915050565b6012546000907f00000000000000000000000000000000000000000000000000000000000000009060ff168015611bcf575060405163c455279160e01b81526001600160a01b038581166004830152808516919083169063c455279190602401602060405180830381865afa158015611ba0573d6000803e3d6000fd5b505050506040513d601f19601f82011682018060405250810190611bc49190613395565b6001600160a01b0316145b15611bde57600191505061097a565b6001600160a01b0380851660009081526005602090815260408083209387168352929052205460ff165b949350505050565b6003600d5460ff166005811115611c2957611c29612f3d565b14611c4757604051633482502f60e01b815260040160405180910390fd5b611c5636829003820182612dcb565b805160ff16600214801590611c705750805160ff16600314155b15611c8e57604051630f10b1bd60e21b815260040160405180910390fd5b8051611c9990610dbe565b8151611ca49061177e565b611cae9190613121565b61ffff16816040015161ffff161115611cda57604051631594bea360e31b815260040160405180910390fd5b611ce936839003830183612dcb565b806040015161ffff16611cfb82610e8d565b611d059190613144565b341015611d2557604051638a0d377960e01b815260040160405180910390fd5b610bbd610d7d36859003850185612dcb565b600a546001600160a01b03163314611d915760405162461bcd60e51b815260206004820181905260248201527f4f776e61626c653a2063616c6c6572206973206e6f7420746865206f776e65726044820152606401610a87565b6001600160a01b038116611df65760405162461bcd60e51b815260206004820152602660248201527f4f776e61626c653a206e6577206f776e657220697320746865207a65726f206160448201526564647265737360d01b6064820152608401610a87565b61106581612305565b611e08336113db565b611e2557604051637bfa4b9f60e01b815260040160405180910390fd5b60108190556040518181527f6c4259bcefc0b17095d43cd0c7a9eb283ba03514c2119806139e05331f98d90e906020016110ed565b60006001600160e01b0319821663780e9d6360e01b148061097a575061097a82612557565b600081815260046020526040902080546001600160a01b0319166001600160a01b0384169081179091558190611eb48261133a565b6001600160a01b03167f8c5be1e5ebec7d5bd14f71427d1e84f3dd0314c0f7b2291e5b200ac8c7c3b92560405160405180910390a45050565b600082611efa85846125a7565b14949350505050565b6002600b541415611f565760405162461bcd60e51b815260206004820152601f60248201527f5265656e7472616e637947756172643a207265656e7472616e742063616c6c006044820152606401610a87565b6002600b55815160ff9081166000908152600f60205260408082206001908101548651909416835290822001549091611f9e9161ffff64010000000090920482169116613359565b90506000836040015182611fb29190613359565b604085810151865160ff166000908152600f6020529190912060010180549293509091600490611fef908490640100000000900461ffff16613359565b92506101000a81548161ffff021916908361ffff1602179055505b8061ffff168261ffff16101561208457612028838361ffff1661261b565b835160208086015160405160ff918216815292169161ffff8516916001600160a01b038716917f3860d639302f8ef62b2c93ee23af60b2885428708deb3deb137cecf7a5210f55910160405180910390a460018201915061200a565b50506001600b555050565b6000818152600260205260408120546001600160a01b03166121085760405162461bcd60e51b815260206004820152602c60248201527f4552433732313a206f70657261746f7220717565727920666f72206e6f6e657860448201526b34b9ba32b73a103a37b5b2b760a11b6064820152608401610a87565b60006121138361133a565b9050806001600160a01b0316846001600160a01b0316148061214e5750836001600160a01b031661214384610a12565b6001600160a01b0316145b80611c085750611c088185611b23565b826001600160a01b03166121718261133a565b6001600160a01b0316146121d55760405162461bcd60e51b815260206004820152602560248201527f4552433732313a207472616e736665722066726f6d20696e636f72726563742060448201526437bbb732b960d91b6064820152608401610a87565b6001600160a01b0382166122375760405162461bcd60e51b8152602060048201526024808201527f4552433732313a207472616e7366657220746f20746865207a65726f206164646044820152637265737360e01b6064820152608401610a87565b612242838383612635565b61224d600082611e7f565b6001600160a01b03831660009081526003602052604081208054600192906122769084906131de565b90915550506001600160a01b03821660009081526003602052604081208054600192906122a49084906133b2565b909155505060008181526002602052604080822080546001600160a01b0319166001600160a01b0386811691821790925591518493918716917fddf252ad1be2c89b69c2b068fc378daa952ba7f163c4a11628f55a4df523b3ef91a4505050565b600a80546001600160a01b038381166001600160a01b0319831681179093556040519116919082907f8be0079c531659141344cd1fd0a4f28419497f9722a3daafe3b4186f6b6457e090600090a35050565b816001600160a01b0316836001600160a01b031614156123b95760405162461bcd60e51b815260206004820152601960248201527f4552433732313a20617070726f766520746f2063616c6c6572000000000000006044820152606401610a87565b6001600160a01b03838116600081815260056020908152604080832094871680845294825291829020805460ff191686151590811790915591519182527f17307eab39ab6107e8899845ad3d59bd9653f200f220920489ca2b5937696c31910160405180910390a3505050565b61243184848461215e565b61243d848484846126ed565b6116335760405162461bcd60e51b8152600401610a87906133ca565b60608161247d5750506040805180820190915260018152600360fc1b602082015290565b8160005b81156124a757806124918161341c565b91506124a09050600a836131ca565b9150612481565b60008167ffffffffffffffff8111156124c2576124c2612db5565b6040519080825280601f01601f1916602001820160405280156124ec576020820181803683370190505b5090505b8415611c08576125016001836131de565b915061250e600a86613437565b6125199060306133b2565b60f81b81838151811061252e5761252e6132b0565b60200101906001600160f81b031916908160001a905350612550600a866131ca565b94506124f0565b60006001600160e01b031982166380ac58cd60e01b148061258857506001600160e01b03198216635b5e139f60e01b145b8061097a57506301ffc9a760e01b6001600160e01b031983161461097a565b600081815b84518110156126135760008582815181106125c9576125c96132b0565b602002602001015190508083116125ef5760008381526020829052604090209250612600565b600081815260208490526040902092505b508061260b8161341c565b9150506125ac565b509392505050565b6112228282604051806020016040528060008152506127eb565b6001600160a01b0383166126905761268b81600880546000838152600960205260408120829055600182018355919091527ff3f7a9fe364faab93b216da50a3214154f22a0a2b415b23a84c8169e8b636ee30155565b6126b3565b816001600160a01b0316836001600160a01b0316146126b3576126b3838261281e565b6001600160a01b0382166126ca57610bbd816128bb565b826001600160a01b0316826001600160a01b031614610bbd57610bbd828261296a565b60006001600160a01b0384163b156127e057604051630a85bd0160e11b81526001600160a01b0385169063150b7a029061273190339089908890889060040161344b565b6020604051808303816000875af192505050801561276c575060408051601f3d908101601f1916820190925261276991810190613487565b60015b6127c6573d80801561279a576040519150601f19603f3d011682016040523d82523d6000602084013e61279f565b606091505b5080516127be5760405162461bcd60e51b8152600401610a87906133ca565b805181602001fd5b6001600160e01b031916630a85bd0160e11b149050611c08565b506001949350505050565b6127f583836129ae565b61280260008484846126ed565b610bbd5760405162461bcd60e51b8152600401610a87906133ca565b6000600161282b8461143b565b61283591906131de565b600083815260076020526040902054909150808214612888576001600160a01b03841660009081526006602090815260408083208584528252808320548484528184208190558352600790915290208190555b5060009182526007602090815260408084208490556001600160a01b039094168352600681528383209183525290812055565b6008546000906128cd906001906131de565b600083815260096020526040812054600880549394509092849081106128f5576128f56132b0565b906000526020600020015490508060088381548110612916576129166132b0565b600091825260208083209091019290925582815260099091526040808220849055858252812055600880548061294e5761294e61337f565b6001900381819060005260206000200160009055905550505050565b60006129758361143b565b6001600160a01b039093166000908152600660209081526040808320868452825280832085905593825260079052919091209190915550565b6001600160a01b038216612a045760405162461bcd60e51b815260206004820181905260248201527f4552433732313a206d696e7420746f20746865207a65726f20616464726573736044820152606401610a87565b6000818152600260205260409020546001600160a01b031615612a695760405162461bcd60e51b815260206004820152601c60248201527f4552433732313a20746f6b656e20616c7265616479206d696e746564000000006044820152606401610a87565b612a7560008383612635565b6001600160a01b0382166000908152600360205260408120805460019290612a9e9084906133b2565b909155505060008181526002602052604080822080546001600160a01b0319166001600160a01b03861690811790915590518392907fddf252ad1be2c89b69c2b068fc378daa952ba7f163c4a11628f55a4df523b3ef908290a45050565b828054612b08906130d6565b90600052602060002090601f016020900481019282612b2a5760008555612b70565b82601f10612b4357805160ff1916838001178555612b70565b82800160010185558215612b70579182015b82811115612b70578251825591602001919060010190612b55565b50612b7c929150612b80565b5090565b5b80821115612b7c5760008155600101612b81565b6001600160e01b03198116811461106557600080fd5b600060208284031215612bbd57600080fd5b81356117ff81612b95565b60005b83811015612be3578181015183820152602001612bcb565b838111156116335750506000910152565b60008151808452612c0c816020860160208601612bc8565b601f01601f19169290920160200192915050565b6020815260006117ff6020830184612bf4565b600060208284031215612c4557600080fd5b5035919050565b6001600160a01b038116811461106557600080fd5b60008060408385031215612c7457600080fd5b8235612c7f81612c4c565b946020939093013593505050565b600060608284031215610e2c57600080fd5b600080600060808486031215612cb457600080fd5b612cbe8585612c8d565b9250606084013567ffffffffffffffff80821115612cdb57600080fd5b818601915086601f830112612cef57600080fd5b813581811115612cfe57600080fd5b8760208260051b8501011115612d1357600080fd5b6020830194508093505050509250925092565b600080600060608486031215612d3b57600080fd5b8335612d4681612c4c565b92506020840135612d5681612c4c565b929592945050506040919091013590565b803560ff811681146115fc57600080fd5b600060208284031215612d8a57600080fd5b6117ff82612d67565b60008060408385031215612da657600080fd5b50508035926020909101359150565b634e487b7160e01b600052604160045260246000fd5b600060608284031215612ddd57600080fd5b6040516060810181811067ffffffffffffffff82111715612e0057612e00612db5565b604052612e0c83612d67565b8152612e1a60208401612d67565b6020820152604083013561ffff81168114612e3457600080fd5b60408201529392505050565b600067ffffffffffffffff80841115612e5b57612e5b612db5565b604051601f8501601f19908116603f01168101908282118183101715612e8357612e83612db5565b81604052809350858152868686011115612e9c57600080fd5b858560208301376000602087830101525050509392505050565b600060208284031215612ec857600080fd5b813567ffffffffffffffff811115612edf57600080fd5b8201601f81018413612ef057600080fd5b611c0884823560208401612e40565b600060208284031215612f1157600080fd5b81356117ff81612c4c565b600060208284031215612f2e57600080fd5b8135600681106117ff57600080fd5b634e487b7160e01b600052602160045260246000fd5b6020810160068310612f7557634e487b7160e01b600052602160045260246000fd5b91905290565b801515811461106557600080fd5b60008060408385031215612f9c57600080fd5b8235612fa781612c4c565b91506020830135612fb781612f7b565b809150509250929050565b60008060008060808587031215612fd857600080fd5b8435612fe381612c4c565b93506020850135612ff381612c4c565b925060408501359150606085013567ffffffffffffffff81111561301657600080fd5b8501601f8101871361302757600080fd5b61303687823560208401612e40565b91505092959194509250565b60006060828403121561305457600080fd5b6117ff8383612c8d565b6000806080838503121561307157600080fd5b61307b8484612c8d565b91506060830135612fb781612c4c565b60006020828403121561309d57600080fd5b81356117ff81612f7b565b600080604083850312156130bb57600080fd5b82356130c681612c4c565b91506020830135612fb781612c4c565b600181811c908216806130ea57607f821691505b60208210811415610e2c57634e487b7160e01b600052602260045260246000fd5b634e487b7160e01b600052601160045260246000fd5b600061ffff8381169083168181101561313c5761313c61310b565b039392505050565b600081600019048311821515161561315e5761315e61310b565b500290565b60208082526031908201527f4552433732313a207472616e736665722063616c6c6572206973206e6f74206f6040820152701ddb995c881b9bdc88185c1c1c9bdd9959607a1b606082015260800190565b634e487b7160e01b600052601260045260246000fd5b6000826131d9576131d96131b4565b500490565b6000828210156131f0576131f061310b565b500390565b6000602080835260008454613209816130d6565b8084870152604060018084166000811461322a576001811461323e5761326c565b60ff1985168984015260608901955061326c565b896000528660002060005b858110156132645781548b8201860152908301908801613249565b8a0184019650505b509398975050505050505050565b60006020828403121561328c57600080fd5b5051919050565b6000602082840312156132a557600080fd5b81516117ff81612f7b565b634e487b7160e01b600052603260045260246000fd5b60008084546132d4816130d6565b600182811680156132ec57600181146132fd5761332c565b60ff1984168752828701945061332c565b8860005260208060002060005b858110156133235781548a82015290840190820161330a565b50505082870194505b505050508351613340818360208801612bc8565b64173539b7b760d91b9101908152600501949350505050565b600061ffff8083168185168083038211156133765761337661310b565b01949350505050565b634e487b7160e01b600052603160045260246000fd5b6000602082840312156133a757600080fd5b81516117ff81612c4c565b600082198211156133c5576133c561310b565b500190565b60208082526032908201527f4552433732313a207472616e7366657220746f206e6f6e20455243373231526560408201527131b2b4bb32b91034b6b83632b6b2b73a32b960711b606082015260800190565b60006000198214156134305761343061310b565b5060010190565b600082613446576134466131b4565b500690565b60006001600160a01b0380871683528086166020840152508360408301526080606083015261347d6080830184612bf4565b9695505050505050565b60006020828403121561349957600080fd5b81516117ff81612b9556fea26469706673582212208025de5626acc676eb77b09cced95fed3c642c9881c866b9bae545a02fc17ce164736f6c634300080b0033089aa9975328102f8cdff40d2e2b75ad3b940f83f42c2e13c43ed875ff8f046a",
  "linkReferences": {},
  "deployedLinkReferences": {}
}