{
  "_format": "hh-sol-artifact-1",
  "contractName": "JAWS",
  "sourceName": "contracts/JAWS.sol",
  "abi": [
    {
      "inputs": [
        {
          "internalType": "address[]",
          "name": "_adminlist",
          "type": "address[]"
        },
        {
          "internalType": "address",
          "name": "_openSeaProxyRegistryAddress",
          "type": "address"
        }
      ],
      "stateMutability": "nonpayable",
      "type": "constructor"
    },
    {
      "inputs": [],
      "name": "InvalidSaleState",
      "type": "error"
    },
    {
      "inputs": [],
      "name": "InvalidStyle",
      "type": "error"
    },
    {
      "inputs": [],
      "name": "InvalidToken",
      "type": "error"
    },
    {
      "inputs": [],
      "name": "NotAdmin",
      "type": "error"
    },
    {
      "inputs": [],
      "name": "NotEnoughEther",
      "type": "error"
    },
    {
      "inputs": [],
      "name": "NotOnWhitelist",
      "type": "error"
    },
    {
      "inputs": [],
      "name": "SupplyLimit",
      "type": "error"
    },
    {
      "inputs": [],
      "name": "TooFewAdmins",
      "type": "error"
    },
    {
      "inputs": [],
      "name": "TransferFailed",
      "type": "error"
    },
    {
      "anonymous": false,
      "inputs": [
        {
          "indexed": false,
          "internalType": "address",
          "name": "addr",
          "type": "address"
        }
      ],
      "name": "AdminAddressAdded",
      "type": "event"
    },
    {
      "anonymous": false,
      "inputs": [
        {
          "indexed": false,
          "internalType": "address",
          "name": "addr",
          "type": "address"
        }
      ],
      "name": "AdminAddressRemoved",
      "type": "event"
    },
    {
      "anonymous": false,
      "inputs": [
        {
          "indexed": true,
          "internalType": "address",
          "name": "owner",
          "type": "address"
        },
        {
          "indexed": true,
          "internalType": "address",
          "name": "approved",
          "type": "address"
        },
        {
          "indexed": true,
          "internalType": "uint256",
          "name": "tokenId",
          "type": "uint256"
        }
      ],
      "name": "Approval",
      "type": "event"
    },
    {
      "anonymous": false,
      "inputs": [
        {
          "indexed": true,
          "internalType": "address",
          "name": "owner",
          "type": "address"
        },
        {
          "indexed": true,
          "internalType": "address",
          "name": "operator",
          "type": "address"
        },
        {
          "indexed": false,
          "internalType": "bool",
          "name": "approved",
          "type": "bool"
        }
      ],
      "name": "ApprovalForAll",
      "type": "event"
    },
    {
      "anonymous": false,
      "inputs": [
        {
          "indexed": false,
          "internalType": "string",
          "name": "",
          "type": "string"
        }
      ],
      "name": "BaseURIUpdated",
      "type": "event"
    },
    {
      "anonymous": false,
      "inputs": [
        {
          "indexed": true,
          "internalType": "address",
          "name": "minter",
          "type": "address"
        },
        {
          "indexed": true,
          "internalType": "uint256",
          "name": "tokenId",
          "type": "uint256"
        },
        {
          "indexed": true,
          "internalType": "uint8",
          "name": "style",
          "type": "uint8"
        },
        {
          "indexed": false,
          "internalType": "uint8",
          "name": "gender",
          "type": "uint8"
        }
      ],
      "name": "JAWSMintEvent",
      "type": "event"
    },
    {
      "anonymous": false,
      "inputs": [
        {
          "indexed": false,
          "internalType": "bool",
          "name": "",
          "type": "bool"
        }
      ],
      "name": "OpenSeaProxyActiveUpdated",
      "type": "event"
    },
    {
      "anonymous": false,
      "inputs": [
        {
          "indexed": true,
          "internalType": "address",
          "name": "previousOwner",
          "type": "address"
        },
        {
          "indexed": true,
          "internalType": "address",
          "name": "newOwner",
          "type": "address"
        }
      ],
      "name": "OwnershipTransferred",
      "type": "event"
    },
    {
      "anonymous": false,
      "inputs": [
        {
          "indexed": false,
          "internalType": "enum State",
          "name": "",
          "type": "uint8"
        }
      ],
      "name": "SaleStateUpdated",
      "type": "event"
    },
    {
      "anonymous": false,
      "inputs": [
        {
          "indexed": true,
          "internalType": "address",
          "name": "from",
          "type": "address"
        },
        {
          "indexed": true,
          "internalType": "address",
          "name": "to",
          "type": "address"
        },
        {
          "indexed": true,
          "internalType": "uint256",
          "name": "tokenId",
          "type": "uint256"
        }
      ],
      "name": "Transfer",
      "type": "event"
    },
    {
      "anonymous": false,
      "inputs": [
        {
          "indexed": false,
          "internalType": "bytes32",
          "name": "",
          "type": "bytes32"
        }
      ],
      "name": "WhitelistRootUpdated",
      "type": "event"
    },
    {
      "inputs": [],
      "name": "DISCOUNT",
      "outputs": [
        {
          "internalType": "uint256",
          "name": "",
          "type": "uint256"
        }
      ],
      "stateMutability": "view",
      "type": "function"
    },
    {
      "inputs": [],
      "name": "DISCOUNT_MINT_MAX",
      "outputs": [
        {
          "internalType": "uint16",
          "name": "",
          "type": "uint16"
        }
      ],
      "stateMutability": "view",
      "type": "function"
    },
    {
      "inputs": [],
      "name": "GENDER_FEMALE",
      "outputs": [
        {
          "internalType": "uint8",
          "name": "",
          "type": "uint8"
        }
      ],
      "stateMutability": "view",
      "type": "function"
    },
    {
      "inputs": [],
      "name": "GENDER_MALE",
      "outputs": [
        {
          "internalType": "uint8",
          "name": "",
          "type": "uint8"
        }
      ],
      "stateMutability": "view",
      "type": "function"
    },
    {
      "inputs": [],
      "name": "STYLE_FC",
      "outputs": [
        {
          "internalType": "uint8",
          "name": "",
          "type": "uint8"
        }
      ],
      "stateMutability": "view",
      "type": "function"
    },
    {
      "inputs": [],
      "name": "STYLE_HR",
      "outputs": [
        {
          "internalType": "uint8",
          "name": "",
          "type": "uint8"
        }
      ],
      "stateMutability": "view",
      "type": "function"
    },
    {
      "inputs": [],
      "name": "STYLE_JAWS",
      "outputs": [
        {
          "internalType": "uint8",
          "name": "",
          "type": "uint8"
        }
      ],
      "stateMutability": "view",
      "type": "function"
    },
    {
      "inputs": [],
      "name": "WHITELIST_MINT_MAX",
      "outputs": [
        {
          "internalType": "uint8",
          "name": "",
          "type": "uint8"
        }
      ],
      "stateMutability": "view",
      "type": "function"
    },
    {
      "inputs": [
        {
          "internalType": "string",
          "name": "_inputURI",
          "type": "string"
        }
      ],
      "name": "_setbaseURI",
      "outputs": [],
      "stateMutability": "nonpayable",
      "type": "function"
    },
    {
      "inputs": [
        {
          "internalType": "address",
          "name": "_addr",
          "type": "address"
        }
      ],
      "name": "addAddressToAdminlist",
      "outputs": [
        {
          "internalType": "bool",
          "name": "success",
          "type": "bool"
        }
      ],
      "stateMutability": "nonpayable",
      "type": "function"
    },
    {
      "inputs": [
        {
          "internalType": "uint256",
          "name": "",
          "type": "uint256"
        }
      ],
      "name": "adminlist",
      "outputs": [
        {
          "internalType": "address",
          "name": "",
          "type": "address"
        }
      ],
      "stateMutability": "view",
      "type": "function"
    },
    {
      "inputs": [
        {
          "internalType": "address",
          "name": "to",
          "type": "address"
        },
        {
          "internalType": "uint256",
          "name": "tokenId",
          "type": "uint256"
        }
      ],
      "name": "approve",
      "outputs": [],
      "stateMutability": "nonpayable",
      "type": "function"
    },
    {
      "inputs": [
        {
          "internalType": "address",
          "name": "owner",
          "type": "address"
        }
      ],
      "name": "balanceOf",
      "outputs": [
        {
          "internalType": "uint256",
          "name": "",
          "type": "uint256"
        }
      ],
      "stateMutability": "view",
      "type": "function"
    },
    {
      "inputs": [],
      "name": "contractURI",
      "outputs": [
        {
          "internalType": "string",
          "name": "",
          "type": "string"
        }
      ],
      "stateMutability": "view",
      "type": "function"
    },
    {
      "inputs": [
        {
          "internalType": "uint256",
          "name": "tokenId",
          "type": "uint256"
        }
      ],
      "name": "getApproved",
      "outputs": [
        {
          "internalType": "address",
          "name": "",
          "type": "address"
        }
      ],
      "stateMutability": "view",
      "type": "function"
    },
    {
      "inputs": [
        {
          "components": [
            {
              "internalType": "uint8",
              "name": "tokenStyle",
              "type": "uint8"
            },
            {
              "internalType": "uint8",
              "name": "gender",
              "type": "uint8"
            },
            {
              "internalType": "uint16",
              "name": "amount",
              "type": "uint16"
            }
          ],
          "internalType": "struct MintData",
          "name": "_data",
          "type": "tuple"
        }
      ],
      "name": "getPrice",
      "outputs": [
        {
          "internalType": "uint256",
          "name": "",
          "type": "uint256"
        }
      ],
      "stateMutability": "view",
      "type": "function"
    },
    {
      "inputs": [
        {
          "internalType": "uint8",
          "name": "_tokenStyle",
          "type": "uint8"
        }
      ],
      "name": "getStyleSold",
      "outputs": [
        {
          "internalType": "uint16",
          "name": "",
          "type": "uint16"
        }
      ],
      "stateMutability": "view",
      "type": "function"
    },
    {
      "inputs": [
        {
          "internalType": "uint8",
          "name": "_tokenStyle",
          "type": "uint8"
        }
      ],
      "name": "getStyleTotal",
      "outputs": [
        {
          "internalType": "uint16",
          "name": "",
          "type": "uint16"
        }
      ],
      "stateMutability": "view",
      "type": "function"
    },
    {
      "inputs": [
        {
          "internalType": "address",
          "name": "_owner",
          "type": "address"
        },
        {
          "internalType": "address",
          "name": "_operator",
          "type": "address"
        }
      ],
      "name": "isApprovedForAll",
      "outputs": [
        {
          "internalType": "bool",
          "name": "",
          "type": "bool"
        }
      ],
      "stateMutability": "view",
      "type": "function"
    },
    {
      "inputs": [],
      "name": "isOpenSeaProxyActive",
      "outputs": [
        {
          "internalType": "bool",
          "name": "",
          "type": "bool"
        }
      ],
      "stateMutability": "view",
      "type": "function"
    },
    {
      "inputs": [
        {
          "components": [
            {
              "internalType": "uint8",
              "name": "tokenStyle",
              "type": "uint8"
            },
            {
              "internalType": "uint8",
              "name": "gender",
              "type": "uint8"
            },
            {
              "internalType": "uint16",
              "name": "amount",
              "type": "uint16"
            }
          ],
          "internalType": "struct MintData",
          "name": "_data",
          "type": "tuple"
        }
      ],
      "name": "mint",
      "outputs": [],
      "stateMutability": "payable",
      "type": "function"
    },
    {
      "inputs": [
        {
          "components": [
            {
              "internalType": "uint8",
              "name": "tokenStyle",
              "type": "uint8"
            },
            {
              "internalType": "uint8",
              "name": "gender",
              "type": "uint8"
            },
            {
              "internalType": "uint16",
              "name": "amount",
              "type": "uint16"
            }
          ],
          "internalType": "struct MintData",
          "name": "_data",
          "type": "tuple"
        }
      ],
      "name": "mintAdmin",
      "outputs": [],
      "stateMutability": "nonpayable",
      "type": "function"
    },
    {
      "inputs": [
        {
          "components": [
            {
              "internalType": "uint8",
              "name": "tokenStyle",
              "type": "uint8"
            },
            {
              "internalType": "uint8",
              "name": "gender",
              "type": "uint8"
            },
            {
              "internalType": "uint16",
              "name": "amount",
              "type": "uint16"
            }
          ],
          "internalType": "struct MintData",
          "name": "_data",
          "type": "tuple"
        },
        {
          "internalType": "address",
          "name": "_target",
          "type": "address"
        }
      ],
      "name": "mintAdminToTarget",
      "outputs": [],
      "stateMutability": "nonpayable",
      "type": "function"
    },
    {
      "inputs": [
        {
          "components": [
            {
              "internalType": "uint8",
              "name": "tokenStyle",
              "type": "uint8"
            },
            {
              "internalType": "uint8",
              "name": "gender",
              "type": "uint8"
            },
            {
              "internalType": "uint16",
              "name": "amount",
              "type": "uint16"
            }
          ],
          "internalType": "struct MintData",
          "name": "_data",
          "type": "tuple"
        },
        {
          "internalType": "bytes32[]",
          "name": "_proof",
          "type": "bytes32[]"
        }
      ],
      "name": "mintWhitelist",
      "outputs": [],
      "stateMutability": "payable",
      "type": "function"
    },
    {
      "inputs": [],
      "name": "name",
      "outputs": [
        {
          "internalType": "string",
          "name": "",
          "type": "string"
        }
      ],
      "stateMutability": "view",
      "type": "function"
    },
    {
      "inputs": [
        {
          "internalType": "address",
          "name": "_addr",
          "type": "address"
        }
      ],
      "name": "onList",
      "outputs": [
        {
          "internalType": "bool",
          "name": "",
          "type": "bool"
        }
      ],
      "stateMutability": "view",
      "type": "function"
    },
    {
      "inputs": [],
      "name": "openSeaProxyRegistryAddress",
      "outputs": [
        {
          "internalType": "address",
          "name": "",
          "type": "address"
        }
      ],
      "stateMutability": "view",
      "type": "function"
    },
    {
      "inputs": [],
      "name": "owner",
      "outputs": [
        {
          "internalType": "address",
          "name": "",
          "type": "address"
        }
      ],
      "stateMutability": "view",
      "type": "function"
    },
    {
      "inputs": [
        {
          "internalType": "uint256",
          "name": "tokenId",
          "type": "uint256"
        }
      ],
      "name": "ownerOf",
      "outputs": [
        {
          "internalType": "address",
          "name": "",
          "type": "address"
        }
      ],
      "stateMutability": "view",
      "type": "function"
    },
    {
      "inputs": [
        {
          "internalType": "address",
          "name": "_addr",
          "type": "address"
        }
      ],
      "name": "removeAddressFromAdminlist",
      "outputs": [
        {
          "internalType": "bool",
          "name": "success",
          "type": "bool"
        }
      ],
      "stateMutability": "nonpayable",
      "type": "function"
    },
    {
      "inputs": [],
      "name": "renounceOwnership",
      "outputs": [],
      "stateMutability": "nonpayable",
      "type": "function"
    },
    {
      "inputs": [
        {
          "internalType": "uint256",
          "name": "_id",
          "type": "uint256"
        },
        {
          "internalType": "uint256",
          "name": "_salePrice",
          "type": "uint256"
        }
      ],
      "name": "royaltyInfo",
      "outputs": [
        {
          "internalType": "address",
          "name": "",
          "type": "address"
        },
        {
          "internalType": "uint256",
          "name": "",
          "type": "uint256"
        }
      ],
      "stateMutability": "view",
      "type": "function"
    },
    {
      "inputs": [
        {
          "internalType": "address",
          "name": "from",
          "type": "address"
        },
        {
          "internalType": "address",
          "name": "to",
          "type": "address"
        },
        {
          "internalType": "uint256",
          "name": "tokenId",
          "type": "uint256"
        }
      ],
      "name": "safeTransferFrom",
      "outputs": [],
      "stateMutability": "nonpayable",
      "type": "function"
    },
    {
      "inputs": [
        {
          "internalType": "address",
          "name": "from",
          "type": "address"
        },
        {
          "internalType": "address",
          "name": "to",
          "type": "address"
        },
        {
          "internalType": "uint256",
          "name": "tokenId",
          "type": "uint256"
        },
        {
          "internalType": "bytes",
          "name": "_data",
          "type": "bytes"
        }
      ],
      "name": "safeTransferFrom",
      "outputs": [],
      "stateMutability": "nonpayable",
      "type": "function"
    },
    {
      "inputs": [],
      "name": "saleState",
      "outputs": [
        {
          "internalType": "enum State",
          "name": "",
          "type": "uint8"
        }
      ],
      "stateMutability": "view",
      "type": "function"
    },
    {
      "inputs": [
        {
          "internalType": "address",
          "name": "operator",
          "type": "address"
        },
        {
          "internalType": "bool",
          "name": "approved",
          "type": "bool"
        }
      ],
      "name": "setApprovalForAll",
      "outputs": [],
      "stateMutability": "nonpayable",
      "type": "function"
    },
    {
      "inputs": [
        {
          "internalType": "bool",
          "name": "_isOpenSeaProxyActive",
          "type": "bool"
        }
      ],
      "name": "setIsOpenSeaProxyActive",
      "outputs": [],
      "stateMutability": "nonpayable",
      "type": "function"
    },
    {
      "inputs": [
        {
          "internalType": "enum State",
          "name": "_saleState",
          "type": "uint8"
        }
      ],
      "name": "setSaleState",
      "outputs": [],
      "stateMutability": "nonpayable",
      "type": "function"
    },
    {
      "inputs": [
        {
          "internalType": "bytes32",
          "name": "_whitelistRoot",
          "type": "bytes32"
        }
      ],
      "name": "setWhitelistRoot",
      "outputs": [],
      "stateMutability": "nonpayable",
      "type": "function"
    },
    {
      "inputs": [
        {
          "internalType": "bytes4",
          "name": "interfaceId",
          "type": "bytes4"
        }
      ],
      "name": "supportsInterface",
      "outputs": [
        {
          "internalType": "bool",
          "name": "",
          "type": "bool"
        }
      ],
      "stateMutability": "view",
      "type": "function"
    },
    {
      "inputs": [],
      "name": "symbol",
      "outputs": [
        {
          "internalType": "string",
          "name": "",
          "type": "string"
        }
      ],
      "stateMutability": "view",
      "type": "function"
    },
    {
      "inputs": [
        {
          "internalType": "uint256",
          "name": "index",
          "type": "uint256"
        }
      ],
      "name": "tokenByIndex",
      "outputs": [
        {
          "internalType": "uint256",
          "name": "",
          "type": "uint256"
        }
      ],
      "stateMutability": "view",
      "type": "function"
    },
    {
      "inputs": [
        {
          "internalType": "address",
          "name": "owner",
          "type": "address"
        },
        {
          "internalType": "uint256",
          "name": "index",
          "type": "uint256"
        }
      ],
      "name": "tokenOfOwnerByIndex",
      "outputs": [
        {
          "internalType": "uint256",
          "name": "",
          "type": "uint256"
        }
      ],
      "stateMutability": "view",
      "type": "function"
    },
    {
      "inputs": [
        {
          "internalType": "uint256",
          "name": "_id",
          "type": "uint256"
        }
      ],
      "name": "tokenURI",
      "outputs": [
        {
          "internalType": "string",
          "name": "",
          "type": "string"
        }
      ],
      "stateMutability": "view",
      "type": "function"
    },
    {
      "inputs": [],
      "name": "totalSupply",
      "outputs": [
        {
          "internalType": "uint256",
          "name": "",
          "type": "uint256"
        }
      ],
      "stateMutability": "view",
      "type": "function"
    },
    {
      "inputs": [
        {
          "internalType": "address",
          "name": "from",
          "type": "address"
        },
        {
          "internalType": "address",
          "name": "to",
          "type": "address"
        },
        {
          "internalType": "uint256",
          "name": "tokenId",
          "type": "uint256"
        }
      ],
      "name": "transferFrom",
      "outputs": [],
      "stateMutability": "nonpayable",
      "type": "function"
    },
    {
      "inputs": [
        {
          "internalType": "address",
          "name": "newOwner",
          "type": "address"
        }
      ],
      "name": "transferOwnership",
      "outputs": [],
      "stateMutability": "nonpayable",
      "type": "function"
    },
    {
      "inputs": [
        {
          "internalType": "address",
          "name": "",
          "type": "address"
        }
      ],
      "name": "whitelistMinterBalance",
      "outputs": [
        {
          "internalType": "uint16",
          "name": "",
          "type": "uint16"
        }
      ],
      "stateMutability": "view",
      "type": "function"
    },
    {
      "inputs": [],
      "name": "whitelistRoot",
      "outputs": [
        {
          "internalType": "bytes32",
          "name": "",
          "type": "bytes32"
        }
      ],
      "stateMutability": "view",
      "type": "function"
    },
    {
      "inputs": [],
      "name": "withdraw",
      "outputs": [],
      "stateMutability": "nonpayable",
      "type": "function"
    },
    {
      "inputs": [
        {
          "internalType": "contract IERC20",
          "name": "token",
          "type": "address"
        }
      ],
      "name": "withdrawTokens",
      "outputs": [],
      "stateMutability": "nonpayable",
      "type": "function"
    },
    {
      "stateMutability": "payable",
      "type": "receive"
    }
  ],
  "bytecode": "0x60a0604052600d80546001919060ff1916828002179055506012805460ff191660011790553480156200003157600080fd5b5060405162003dca38038062003dca8339810160408190526200005491620006b6565b6040805180820182526008815267129055d4c813919560c21b6020808301918252835180850190945260048452634a41575360e01b908401528151919291620000a091600091620005e2565b508051620000b6906001906020840190620005e2565b505050620000d3620000cd620003ff60201b60201c565b62000403565b6001600b55620000e33362000455565b815160005b8161ffff168161ffff16101562000134576200012a848261ffff16815181106200011657620001166200079c565b6020026020010151620004c860201b60201c565b50600101620000e8565b506001600160a01b03821660809081526040805160e081018252600d60a082019081526c2337bab73232b9399021b63ab160991b60c0830152815260016020808301829052606493830193909352600060608301819052938201849052909252600f8152815180517f169f97de0d9a84d840042b17d3c6b9638b3d6fd9024c9eb0c7a306a17b49f88f92620001ce928492910190620005e2565b5060208281015160018301805460408087015160608089015161ffff9081166401000000000261ffff60201b19938216620100000263ffffffff199096169190971617939093171693909317909155608094850151600294850155815160e081018352600c60a082019081526b4869676820526f6c6c65727360a01b60c08301528152606581850152610912928101929092526000908201819052673782dace9d9000009482019490945291909252600f82528051805191927fa74ba3945261e09fde15ba3db55005b205e61eeb4ad811ac0faa2b315bffeead92620002b89284920190620005e2565b5060208281015160018301805460408087015160608089015161ffff9081166401000000000261ffff60201b19938216620100000263ffffffff199096169190971617939093171693909317909155608094850151600290940193909355805160e081018252600460a08201908152634a41575360e01b60c0830152815261091381840152612773918101919091526000928101839052670214e8348c4f0000938101939093526003909152600f8152815180517f45f76dafbbad695564362934e24d72eedc57f9fc1a65f39bca62176cc8296828926200039e928492910190620005e2565b5060208201516001820180546040850151606086015161ffff9081166401000000000261ffff60201b19928216620100000263ffffffff199094169190951617919091171691909117905560809091015160029091015550620007ef915050565b3390565b600a80546001600160a01b038381166001600160a01b0319831681179093556040519116919082907f8be0079c531659141344cd1fd0a4f28419497f9722a3daafe3b4186f6b6457e090600090a35050565b600c80546001810182556000919091527fdf6966c971051c3d54ec59162606531493a51404a002842f56009d7e5cf4a8c70180546001600160a01b0319166001600160a01b03831690811790915560405190815260008051602062003daa8339815191529060200160405180910390a150565b6000620004d5336200057c565b620004f357604051637bfa4b9f60e01b815260040160405180910390fd5b620004fe826200057c565b6200057757600c80546001810182556000919091527fdf6966c971051c3d54ec59162606531493a51404a002842f56009d7e5cf4a8c70180546001600160a01b0319166001600160a01b03841690811790915560405190815260008051602062003daa8339815191529060200160405180910390a15060015b919050565b600c546000908190815b81811015620005d957846001600160a01b0316600c8281548110620005af57620005af6200079c565b6000918252602090912001546001600160a01b03161415620005d057600192505b60010162000586565b50909392505050565b828054620005f090620007b2565b90600052602060002090601f0160209004810192826200061457600085556200065f565b82601f106200062f57805160ff19168380011785556200065f565b828001600101855582156200065f579182015b828111156200065f57825182559160200191906001019062000642565b506200066d92915062000671565b5090565b5b808211156200066d576000815560010162000672565b634e487b7160e01b600052604160045260246000fd5b80516001600160a01b03811681146200057757600080fd5b60008060408385031215620006ca57600080fd5b82516001600160401b0380821115620006e257600080fd5b818501915085601f830112620006f757600080fd5b81516020828211156200070e576200070e62000688565b8160051b604051601f19603f8301168101818110868211171562000736576200073662000688565b6040529283528183019350848101820192898411156200075557600080fd5b948201945b838610156200077e576200076e866200069e565b855294820194938201936200075a565b96506200078f90508782016200069e565b9450505050509250929050565b634e487b7160e01b600052603260045260246000fd5b600181811c90821680620007c757607f821691505b60208210811415620007e957634e487b7160e01b600052602260045260246000fd5b50919050565b60805161359862000812600039600081816107eb0152611b7301526135986000f3fe6080604052600436106103385760003560e01c80636c529a26116101b0578063b88d4fde116100ec578063e44451ba11610095578063e985e9c51161006f578063e985e9c514610902578063eebb9eb714610922578063f2fde38b14610935578063f5aa406d1461095557600080fd5b8063e44451ba146108cd578063e6d3216d146106b6578063e8a3d485146108ed57600080fd5b8063d32c05f0116100c6578063d32c05f01461086d578063e2e8337c1461088d578063e43082f7146108ad57600080fd5b8063b88d4fde1461080d578063b994fb991461082d578063c87b56dd1461084d57600080fd5b80637f091f0611610159578063a22cb46511610133578063a22cb46514610799578063a78843f914610720578063b5f3e71a146107b9578063b7f47d32146107d957600080fd5b80637f091f06146107355780638da5cb5b1461076657806395d89b411461078457600080fd5b806370a082311161018a57806370a08231146106eb578063715018a61461070b5780637bc45f071461072057600080fd5b80636c529a261461069c5780636e4f2c52146106b65780636f626eb3146106cb57600080fd5b80632c80d14c1161027f5780634985fb5b116102285780635a67de07116102025780635a67de0714610615578063603f4d52146106355780636352211e1461065c578063646f21271461067c57600080fd5b80634985fb5b146105b557806349df728c146105d55780634f6ccce7146105f557600080fd5b80633b32c74d116102595780633b32c74d1461056b5780633ccfd60b1461058057806342842e0e1461059557600080fd5b80632c80d14c146105155780632f745c5914610535578063386bfc981461055557600080fd5b806313118e50116102e15780632a2732d4116102bb5780632a2732d41461048f5780632a55205a146104af5780632b03a4aa146104ee57600080fd5b806313118e501461044757806318160ddd1461045a57806323b872dd1461046f57600080fd5b8063081812fc11610312578063081812fc146103c4578063095ea7b3146103fc5780630d37b4571461041e57600080fd5b806301ffc9a7146103445780630310b0621461037957806306fdde03146103a257600080fd5b3661033f57005b600080fd5b34801561035057600080fd5b5061036461035f366004612c2f565b610975565b60405190151581526020015b60405180910390f35b34801561038557600080fd5b5061038f61030981565b60405161ffff9091168152602001610370565b3480156103ae57600080fd5b506103b76109a0565b6040516103709190612ca4565b3480156103d057600080fd5b506103e46103df366004612cb7565b610a32565b6040516001600160a01b039091168152602001610370565b34801561040857600080fd5b5061041c610417366004612ce5565b610acc565b005b34801561042a57600080fd5b5061043966b1a2bc2ec5000081565b604051908152602001610370565b61041c610455366004612d23565b610be2565b34801561046657600080fd5b50600854610439565b34801561047b57600080fd5b5061041c61048a366004612daa565b610dad565b34801561049b57600080fd5b5061038f6104aa366004612dfc565b610dde565b3480156104bb57600080fd5b506104cf6104ca366004612e17565b610e52565b604080516001600160a01b039093168352602083019190915201610370565b3480156104fa57600080fd5b50610503600581565b60405160ff9091168152602001610370565b34801561052157600080fd5b50610439610530366004612e4f565b610ead565b34801561054157600080fd5b50610439610550366004612ce5565b610f60565b34801561056157600080fd5b5061043960105481565b34801561057757600080fd5b50610503600381565b34801561058c57600080fd5b5061041c610ff6565b3480156105a157600080fd5b5061041c6105b0366004612daa565b611088565b3480156105c157600080fd5b5061041c6105d0366004612f3a565b6110a3565b3480156105e157600080fd5b5061041c6105f0366004612f83565b611118565b34801561060157600080fd5b50610439610610366004612cb7565b611246565b34801561062157600080fd5b5061041c610630366004612fa0565b6112d9565b34801561064157600080fd5b50600d5461064f9060ff1681565b6040516103709190612fd7565b34801561066857600080fd5b506103e4610677366004612cb7565b61135a565b34801561068857600080fd5b506103e4610697366004612cb7565b6113d1565b3480156106a857600080fd5b506012546103649060ff1681565b3480156106c257600080fd5b50610503600281565b3480156106d757600080fd5b506103646106e6366004612f83565b6113fb565b3480156106f757600080fd5b50610439610706366004612f83565b61145b565b34801561071757600080fd5b5061041c6114e2565b34801561072c57600080fd5b50610503600181565b34801561074157600080fd5b5061038f610750366004612f83565b60116020526000908152604090205461ffff1681565b34801561077257600080fd5b50600a546001600160a01b03166103e4565b34801561079057600080fd5b506103b7611548565b3480156107a557600080fd5b5061041c6107b436600461300d565b611557565b3480156107c557600080fd5b506103646107d4366004612f83565b611562565b3480156107e557600080fd5b506103e47f000000000000000000000000000000000000000000000000000000000000000081565b34801561081957600080fd5b5061041c610828366004613046565b611621565b34801561083957600080fd5b5061041c6108483660046130c6565b611659565b34801561085957600080fd5b506103b7610868366004612cb7565b611735565b34801561087957600080fd5b5061038f610888366004612dfc565b61179e565b34801561089957600080fd5b5061041c6108a83660046130e2565b611826565b3480156108b957600080fd5b5061041c6108c836600461310f565b611908565b3480156108d957600080fd5b506103646108e8366004612f83565b6119a9565b3480156108f957600080fd5b506103b7611b43565b34801561090e57600080fd5b5061036461091d36600461312c565b611b6b565b61041c6109303660046130c6565b611c58565b34801561094157600080fd5b5061041c610950366004612f83565b611d7f565b34801561096157600080fd5b5061041c610970366004612cb7565b611e47565b60006001600160e01b0319821663152a902d60e11b148061099a575061099a82611ea2565b92915050565b6060600080546109af9061315a565b80601f01602080910402602001604051908101604052809291908181526020018280546109db9061315a565b8015610a285780601f106109fd57610100808354040283529160200191610a28565b820191906000526020600020905b815481529060010190602001808311610a0b57829003601f168201915b5050505050905090565b6000818152600260205260408120546001600160a01b0316610ab05760405162461bcd60e51b815260206004820152602c60248201527f4552433732313a20617070726f76656420717565727920666f72206e6f6e657860448201526b34b9ba32b73a103a37b5b2b760a11b60648201526084015b60405180910390fd5b506000908152600460205260409020546001600160a01b031690565b6000610ad78261135a565b9050806001600160a01b0316836001600160a01b03161415610b455760405162461bcd60e51b815260206004820152602160248201527f4552433732313a20617070726f76616c20746f2063757272656e74206f776e656044820152603960f91b6064820152608401610aa7565b336001600160a01b0382161480610b615750610b618133611b6b565b610bd35760405162461bcd60e51b815260206004820152603860248201527f4552433732313a20617070726f76652063616c6c6572206973206e6f74206f7760448201527f6e6572206e6f7220617070726f76656420666f7220616c6c00000000000000006064820152608401610aa7565b610bdd8383611ec7565b505050565b8181601054610c59838380806020026020016040519081016040528093929190818152602001838360200280828437600092019190915250506040516bffffffffffffffffffffffff193360601b166020820152859250603401905060405160208183030381529060405280519060200120611f35565b610c765760405163522fc3bd60e01b815260040160405180910390fd5b6002600d5460ff166005811115610c8f57610c8f612fc1565b14610cad57604051633482502f60e01b815260040160405180910390fd5b610cbc36879003870187612e4f565b805160ff16600214801590610cd65750805160ff16600314155b15610cf457604051630f10b1bd60e21b815260040160405180910390fd5b8051610cff90610dde565b8151610d0a9061179e565b610d1491906131a5565b61ffff16816040015161ffff161115610d4057604051631594bea360e31b815260040160405180910390fd5b610d4f36889003880188612e4f565b806040015161ffff16610d6182610ead565b610d6b91906131c8565b341015610d8b57604051638a0d377960e01b815260040160405180910390fd5b610da3610d9d368a90038a018a612e4f565b33611f4b565b5050505050505050565b610db733826120d7565b610dd35760405162461bcd60e51b8152600401610aa7906131e7565b610bdd8383836121a6565b60008160ff8116600114801590610df9575060ff8116600214155b8015610e09575060ff8116600314155b15610e2757604051630f10b1bd60e21b815260040160405180910390fd5b60ff83166000908152600f6020526040902060010154640100000000900461ffff1691505b50919050565b6000808381610e608261135a565b6001600160a01b03161415610e885760405163c1ab6dc160e01b815260040160405180910390fd5b306103e8610e978660196131c8565b610ea1919061324e565b92509250509250929050565b805160009081906002600d5460ff166005811115610ecd57610ecd612fc1565b148015610edd575060ff81166003145b8015610f0c575060ff81166000908152600f602052604090206001015461030964010000000090910461ffff16105b15610f405760ff81166000908152600f6020526040902060020154610f399066b1a2bc2ec5000090613262565b9150610f59565b60ff81166000908152600f602052604090206002015491505b5092915050565b6000610f6b8361145b565b8210610fcd5760405162461bcd60e51b815260206004820152602b60248201527f455243373231456e756d657261626c653a206f776e657220696e646578206f7560448201526a74206f6620626f756e647360a81b6064820152608401610aa7565b506001600160a01b03919091166000908152600660209081526040808320938352929052205490565b610fff336113fb565b61101c57604051637bfa4b9f60e01b815260040160405180910390fd5b604051600090339047908381818185875af1925050503d806000811461105e576040519150601f19603f3d011682016040523d82523d6000602084013e611063565b606091505b5050905080611085576040516312171d8360e31b815260040160405180910390fd5b50565b610bdd83838360405180602001604052806000815250611621565b6110ac336113fb565b6110c957604051637bfa4b9f60e01b815260040160405180910390fd5b80516110dc90600e906020840190612b80565b507f6741b2fc379fad678116fe3d4d4b9a1a184ab53ba36b86ad0fa66340b1ab41ad600e60405161110d9190613279565b60405180910390a150565b611121336113fb565b61113e57604051637bfa4b9f60e01b815260040160405180910390fd5b6040516370a0823160e01b81523060048201526000906001600160a01b0383169063a9059cbb90339083906370a0823190602401602060405180830381865afa15801561118f573d6000803e3d6000fd5b505050506040513d601f19601f820116820180604052508101906111b391906132fe565b6040516001600160e01b031960e085901b1681526001600160a01b03909216600483015260248201526044016020604051808303816000875af11580156111fe573d6000803e3d6000fd5b505050506040513d601f19601f820116820180604052508101906112229190613317565b905080611242576040516312171d8360e31b815260040160405180910390fd5b5050565b600061125160085490565b82106112b45760405162461bcd60e51b815260206004820152602c60248201527f455243373231456e756d657261626c653a20676c6f62616c20696e646578206f60448201526b7574206f6620626f756e647360a01b6064820152608401610aa7565b600882815481106112c7576112c7613334565b90600052602060002001549050919050565b6112e2336113fb565b6112ff57604051637bfa4b9f60e01b815260040160405180910390fd5b600d805482919060ff1916600183600581111561131e5761131e612fc1565b0217905550600d546040517fcd7cbf1a81c5c14aaff5dfe45f07363084bd57b27049b77adca59e1b75b40d6e9161110d9160ff90911690612fd7565b6000818152600260205260408120546001600160a01b03168061099a5760405162461bcd60e51b815260206004820152602960248201527f4552433732313a206f776e657220717565727920666f72206e6f6e657869737460448201526832b73a103a37b5b2b760b91b6064820152608401610aa7565b600c81815481106113e157600080fd5b6000918252602090912001546001600160a01b0316905081565b600c546000908190815b8181101561145257846001600160a01b0316600c828154811061142a5761142a613334565b6000918252602090912001546001600160a01b0316141561144a57600192505b600101611405565b50909392505050565b60006001600160a01b0382166114c65760405162461bcd60e51b815260206004820152602a60248201527f4552433732313a2062616c616e636520717565727920666f7220746865207a65604482015269726f206164647265737360b01b6064820152608401610aa7565b506001600160a01b031660009081526003602052604090205490565b600a546001600160a01b0316331461153c5760405162461bcd60e51b815260206004820181905260248201527f4f776e61626c653a2063616c6c6572206973206e6f7420746865206f776e65726044820152606401610aa7565b6115466000612351565b565b6060600180546109af9061315a565b6112423383836123a3565b600061156d336113fb565b61158a57604051637bfa4b9f60e01b815260040160405180910390fd5b611593826113fb565b61161c57600c80546001810182556000919091527fdf6966c971051c3d54ec59162606531493a51404a002842f56009d7e5cf4a8c70180546001600160a01b0319166001600160a01b0384169081179091556040519081527f089aa9975328102f8cdff40d2e2b75ad3b940f83f42c2e13c43ed875ff8f046a9060200160405180910390a15060015b919050565b61162b33836120d7565b6116475760405162461bcd60e51b8152600401610aa7906131e7565b61165384848484612472565b50505050565b611662336113fb565b61167f57604051637bfa4b9f60e01b815260040160405180910390fd5b61168e36829003820182612e4f565b805160ff166001148015906116a85750805160ff16600214155b80156116b95750805160ff16600314155b156116d757604051630f10b1bd60e21b815260040160405180910390fd5b80516116e290610dde565b81516116ed9061179e565b6116f791906131a5565b61ffff16816040015161ffff16111561172357604051631594bea360e31b815260040160405180910390fd5b611242610d9d36849003840184612e4f565b60608160006117438261135a565b6001600160a01b0316141561176b5760405163c1ab6dc160e01b815260040160405180910390fd5b600e611776846124a5565b6040516020016117879291906133b9565b604051602081830303815290604052915050919050565b60008160ff81166001148015906117b9575060ff8116600214155b80156117c9575060ff8116600314155b156117e757604051630f10b1bd60e21b815260040160405180910390fd5b60ff83166000908152600f60205260409020600101546118149061ffff80821691620100009004166131a5565b61181f9060016133ee565b9392505050565b61182f336113fb565b61184c57604051637bfa4b9f60e01b815260040160405180910390fd5b61185b36839003830183612e4f565b805160ff166001148015906118755750805160ff16600214155b80156118865750805160ff16600314155b156118a457604051630f10b1bd60e21b815260040160405180910390fd5b80516118af90610dde565b81516118ba9061179e565b6118c491906131a5565b61ffff16816040015161ffff1611156118f057604051631594bea360e31b815260040160405180910390fd5b610bdd61190236859003850185612e4f565b83611f4b565b600a546001600160a01b031633146119625760405162461bcd60e51b815260206004820181905260248201527f4f776e61626c653a2063616c6c6572206973206e6f7420746865206f776e65726044820152606401610aa7565b6012805460ff191682151590811790915560405160ff909116151581527fde26225db7392d7b072e2b55b58657ff73240030614068c4345d9d6a6cc9ef029060200161110d565b60006119b4336113fb565b6119d157604051637bfa4b9f60e01b815260040160405180910390fd5b6119da826113fb565b1561161c57600c5460018111611a035760405163a828df7560e01b815260040160405180910390fd5b60005b81811015611afd57836001600160a01b0316600c8281548110611a2b57611a2b613334565b6000918252602090912001546001600160a01b03161415611af557600c611a53600184613262565b81548110611a6357611a63613334565b600091825260209091200154600c80546001600160a01b039092169183908110611a8f57611a8f613334565b9060005260206000200160006101000a8154816001600160a01b0302191690836001600160a01b03160217905550600c805480611ace57611ace613414565b600082815260209020810160001990810180546001600160a01b0319169055019055611afd565b600101611a06565b506040516001600160a01b03841681527fc41dab03d4639245f86ebd733046feb495209977c224698a4d1318fec207af5a9060200160405180910390a150600192915050565b6060600e604051602001611b57919061342a565b604051602081830303815290604052905090565b6012546000907f00000000000000000000000000000000000000000000000000000000000000009060ff168015611c17575060405163c455279160e01b81526001600160a01b038581166004830152808516919083169063c455279190602401602060405180830381865afa158015611be8573d6000803e3d6000fd5b505050506040513d601f19601f82011682018060405250810190611c0c9190613453565b6001600160a01b0316145b15611c2657600191505061099a565b6001600160a01b0380851660009081526005602090815260408083209387168352929052205460ff165b949350505050565b6003600d5460ff166005811115611c7157611c71612fc1565b14611c8f57604051633482502f60e01b815260040160405180910390fd5b611c9e36829003820182612e4f565b805160ff16600214801590611cb85750805160ff16600314155b15611cd657604051630f10b1bd60e21b815260040160405180910390fd5b8051611ce190610dde565b8151611cec9061179e565b611cf691906131a5565b61ffff16816040015161ffff161115611d2257604051631594bea360e31b815260040160405180910390fd5b611d3136839003830183612e4f565b806040015161ffff16611d4382610ead565b611d4d91906131c8565b341015611d6d57604051638a0d377960e01b815260040160405180910390fd5b610bdd610d9d36859003850185612e4f565b600a546001600160a01b03163314611dd95760405162461bcd60e51b815260206004820181905260248201527f4f776e61626c653a2063616c6c6572206973206e6f7420746865206f776e65726044820152606401610aa7565b6001600160a01b038116611e3e5760405162461bcd60e51b815260206004820152602660248201527f4f776e61626c653a206e6577206f776e657220697320746865207a65726f206160448201526564647265737360d01b6064820152608401610aa7565b61108581612351565b611e50336113fb565b611e6d57604051637bfa4b9f60e01b815260040160405180910390fd5b60108190556040518181527f6c4259bcefc0b17095d43cd0c7a9eb283ba03514c2119806139e05331f98d90e9060200161110d565b60006001600160e01b0319821663780e9d6360e01b148061099a575061099a826125a3565b600081815260046020526040902080546001600160a01b0319166001600160a01b0384169081179091558190611efc8261135a565b6001600160a01b03167f8c5be1e5ebec7d5bd14f71427d1e84f3dd0314c0f7b2291e5b200ac8c7c3b92560405160405180910390a45050565b600082611f4285846125f3565b14949350505050565b6002600b541415611f9e5760405162461bcd60e51b815260206004820152601f60248201527f5265656e7472616e637947756172643a207265656e7472616e742063616c6c006044820152606401610aa7565b6002600b55815160ff9081166000908152600f60205260408082206001908101548651909416835290822001549091611fe69161ffff640100000000909204821691166133ee565b90506000836040015182611ffa91906133ee565b604085810151865160ff166000908152600f6020529190912060010180549293509091600490612037908490640100000000900461ffff166133ee565b92506101000a81548161ffff021916908361ffff1602179055505b8061ffff168261ffff1610156120cc57612070838361ffff1661269f565b835160208086015160405160ff918216815292169161ffff8516916001600160a01b038716917f3860d639302f8ef62b2c93ee23af60b2885428708deb3deb137cecf7a5210f55910160405180910390a4600182019150612052565b50506001600b555050565b6000818152600260205260408120546001600160a01b03166121505760405162461bcd60e51b815260206004820152602c60248201527f4552433732313a206f70657261746f7220717565727920666f72206e6f6e657860448201526b34b9ba32b73a103a37b5b2b760a11b6064820152608401610aa7565b600061215b8361135a565b9050806001600160a01b0316846001600160a01b031614806121965750836001600160a01b031661218b84610a32565b6001600160a01b0316145b80611c505750611c508185611b6b565b826001600160a01b03166121b98261135a565b6001600160a01b0316146122215760405162461bcd60e51b815260206004820152602960248201527f4552433732313a207472616e73666572206f6620746f6b656e2074686174206960448201526839903737ba1037bbb760b91b6064820152608401610aa7565b6001600160a01b0382166122835760405162461bcd60e51b8152602060048201526024808201527f4552433732313a207472616e7366657220746f20746865207a65726f206164646044820152637265737360e01b6064820152608401610aa7565b61228e8383836126b9565b612299600082611ec7565b6001600160a01b03831660009081526003602052604081208054600192906122c2908490613262565b90915550506001600160a01b03821660009081526003602052604081208054600192906122f0908490613470565b909155505060008181526002602052604080822080546001600160a01b0319166001600160a01b0386811691821790925591518493918716917fddf252ad1be2c89b69c2b068fc378daa952ba7f163c4a11628f55a4df523b3ef91a4505050565b600a80546001600160a01b038381166001600160a01b0319831681179093556040519116919082907f8be0079c531659141344cd1fd0a4f28419497f9722a3daafe3b4186f6b6457e090600090a35050565b816001600160a01b0316836001600160a01b031614156124055760405162461bcd60e51b815260206004820152601960248201527f4552433732313a20617070726f766520746f2063616c6c6572000000000000006044820152606401610aa7565b6001600160a01b03838116600081815260056020908152604080832094871680845294825291829020805460ff191686151590811790915591519182527f17307eab39ab6107e8899845ad3d59bd9653f200f220920489ca2b5937696c31910160405180910390a3505050565b61247d8484846121a6565b61248984848484612771565b6116535760405162461bcd60e51b8152600401610aa790613488565b6060816124c95750506040805180820190915260018152600360fc1b602082015290565b8160005b81156124f357806124dd816134da565b91506124ec9050600a8361324e565b91506124cd565b60008167ffffffffffffffff81111561250e5761250e612e39565b6040519080825280601f01601f191660200182016040528015612538576020820181803683370190505b5090505b8415611c505761254d600183613262565b915061255a600a866134f5565b612565906030613470565b60f81b81838151811061257a5761257a613334565b60200101906001600160f81b031916908160001a90535061259c600a8661324e565b945061253c565b60006001600160e01b031982166380ac58cd60e01b14806125d457506001600160e01b03198216635b5e139f60e01b145b8061099a57506301ffc9a760e01b6001600160e01b031983161461099a565b600081815b845181101561269757600085828151811061261557612615613334565b60200260200101519050808311612657576040805160208101859052908101829052606001604051602081830303815290604052805190602001209250612684565b60408051602081018390529081018490526060016040516020818303038152906040528051906020012092505b508061268f816134da565b9150506125f8565b509392505050565b61124282826040518060200160405280600081525061286f565b6001600160a01b0383166127145761270f81600880546000838152600960205260408120829055600182018355919091527ff3f7a9fe364faab93b216da50a3214154f22a0a2b415b23a84c8169e8b636ee30155565b612737565b816001600160a01b0316836001600160a01b0316146127375761273783826128a2565b6001600160a01b03821661274e57610bdd8161293f565b826001600160a01b0316826001600160a01b031614610bdd57610bdd82826129ee565b60006001600160a01b0384163b1561286457604051630a85bd0160e11b81526001600160a01b0385169063150b7a02906127b5903390899088908890600401613509565b6020604051808303816000875af19250505080156127f0575060408051601f3d908101601f191682019092526127ed91810190613545565b60015b61284a573d80801561281e576040519150601f19603f3d011682016040523d82523d6000602084013e612823565b606091505b5080516128425760405162461bcd60e51b8152600401610aa790613488565b805181602001fd5b6001600160e01b031916630a85bd0160e11b149050611c50565b506001949350505050565b6128798383612a32565b6128866000848484612771565b610bdd5760405162461bcd60e51b8152600401610aa790613488565b600060016128af8461145b565b6128b99190613262565b60008381526007602052604090205490915080821461290c576001600160a01b03841660009081526006602090815260408083208584528252808320548484528184208190558352600790915290208190555b5060009182526007602090815260408084208490556001600160a01b039094168352600681528383209183525290812055565b60085460009061295190600190613262565b6000838152600960205260408120546008805493945090928490811061297957612979613334565b90600052602060002001549050806008838154811061299a5761299a613334565b60009182526020808320909101929092558281526009909152604080822084905585825281205560088054806129d2576129d2613414565b6001900381819060005260206000200160009055905550505050565b60006129f98361145b565b6001600160a01b039093166000908152600660209081526040808320868452825280832085905593825260079052919091209190915550565b6001600160a01b038216612a885760405162461bcd60e51b815260206004820181905260248201527f4552433732313a206d696e7420746f20746865207a65726f20616464726573736044820152606401610aa7565b6000818152600260205260409020546001600160a01b031615612aed5760405162461bcd60e51b815260206004820152601c60248201527f4552433732313a20746f6b656e20616c7265616479206d696e746564000000006044820152606401610aa7565b612af9600083836126b9565b6001600160a01b0382166000908152600360205260408120805460019290612b22908490613470565b909155505060008181526002602052604080822080546001600160a01b0319166001600160a01b03861690811790915590518392907fddf252ad1be2c89b69c2b068fc378daa952ba7f163c4a11628f55a4df523b3ef908290a45050565b828054612b8c9061315a565b90600052602060002090601f016020900481019282612bae5760008555612bf4565b82601f10612bc757805160ff1916838001178555612bf4565b82800160010185558215612bf4579182015b82811115612bf4578251825591602001919060010190612bd9565b50612c00929150612c04565b5090565b5b80821115612c005760008155600101612c05565b6001600160e01b03198116811461108557600080fd5b600060208284031215612c4157600080fd5b813561181f81612c19565b60005b83811015612c67578181015183820152602001612c4f565b838111156116535750506000910152565b60008151808452612c90816020860160208601612c4c565b601f01601f19169290920160200192915050565b60208152600061181f6020830184612c78565b600060208284031215612cc957600080fd5b5035919050565b6001600160a01b038116811461108557600080fd5b60008060408385031215612cf857600080fd5b8235612d0381612cd0565b946020939093013593505050565b600060608284031215610e4c57600080fd5b600080600060808486031215612d3857600080fd5b612d428585612d11565b9250606084013567ffffffffffffffff80821115612d5f57600080fd5b818601915086601f830112612d7357600080fd5b813581811115612d8257600080fd5b8760208260051b8501011115612d9757600080fd5b6020830194508093505050509250925092565b600080600060608486031215612dbf57600080fd5b8335612dca81612cd0565b92506020840135612dda81612cd0565b929592945050506040919091013590565b803560ff8116811461161c57600080fd5b600060208284031215612e0e57600080fd5b61181f82612deb565b60008060408385031215612e2a57600080fd5b50508035926020909101359150565b634e487b7160e01b600052604160045260246000fd5b600060608284031215612e6157600080fd5b6040516060810181811067ffffffffffffffff82111715612e8457612e84612e39565b604052612e9083612deb565b8152612e9e60208401612deb565b6020820152604083013561ffff81168114612eb857600080fd5b60408201529392505050565b600067ffffffffffffffff80841115612edf57612edf612e39565b604051601f8501601f19908116603f01168101908282118183101715612f0757612f07612e39565b81604052809350858152868686011115612f2057600080fd5b858560208301376000602087830101525050509392505050565b600060208284031215612f4c57600080fd5b813567ffffffffffffffff811115612f6357600080fd5b8201601f81018413612f7457600080fd5b611c5084823560208401612ec4565b600060208284031215612f9557600080fd5b813561181f81612cd0565b600060208284031215612fb257600080fd5b81356006811061181f57600080fd5b634e487b7160e01b600052602160045260246000fd5b6020810160068310612ff957634e487b7160e01b600052602160045260246000fd5b91905290565b801515811461108557600080fd5b6000806040838503121561302057600080fd5b823561302b81612cd0565b9150602083013561303b81612fff565b809150509250929050565b6000806000806080858703121561305c57600080fd5b843561306781612cd0565b9350602085013561307781612cd0565b925060408501359150606085013567ffffffffffffffff81111561309a57600080fd5b8501601f810187136130ab57600080fd5b6130ba87823560208401612ec4565b91505092959194509250565b6000606082840312156130d857600080fd5b61181f8383612d11565b600080608083850312156130f557600080fd5b6130ff8484612d11565b9150606083013561303b81612cd0565b60006020828403121561312157600080fd5b813561181f81612fff565b6000806040838503121561313f57600080fd5b823561314a81612cd0565b9150602083013561303b81612cd0565b600181811c9082168061316e57607f821691505b60208210811415610e4c57634e487b7160e01b600052602260045260246000fd5b634e487b7160e01b600052601160045260246000fd5b600061ffff838116908316818110156131c0576131c061318f565b039392505050565b60008160001904831182151516156131e2576131e261318f565b500290565b60208082526031908201527f4552433732313a207472616e736665722063616c6c6572206973206e6f74206f6040820152701ddb995c881b9bdc88185c1c1c9bdd9959607a1b606082015260800190565b634e487b7160e01b600052601260045260246000fd5b60008261325d5761325d613238565b500490565b6000828210156132745761327461318f565b500390565b600060208083526000845461328d8161315a565b808487015260406001808416600081146132ae57600181146132c2576132f0565b60ff198516898401526060890195506132f0565b896000528660002060005b858110156132e85781548b82018601529083019088016132cd565b8a0184019650505b509398975050505050505050565b60006020828403121561331057600080fd5b5051919050565b60006020828403121561332957600080fd5b815161181f81612fff565b634e487b7160e01b600052603260045260246000fd5b600081546133578161315a565b6001828116801561336f5760018114613380576133af565b60ff198416875282870194506133af565b8560005260208060002060005b858110156133a65781548a82015290840190820161338d565b50505082870194505b5050505092915050565b60006133c5828561334a565b83516133d5818360208801612c4c565b64173539b7b760d91b9101908152600501949350505050565b600061ffff80831681851680830382111561340b5761340b61318f565b01949350505050565b634e487b7160e01b600052603160045260246000fd5b6000613436828461334a565b6c31b7b73a3930b1ba173539b7b760991b8152600d019392505050565b60006020828403121561346557600080fd5b815161181f81612cd0565b600082198211156134835761348361318f565b500190565b60208082526032908201527f4552433732313a207472616e7366657220746f206e6f6e20455243373231526560408201527131b2b4bb32b91034b6b83632b6b2b73a32b960711b606082015260800190565b60006000198214156134ee576134ee61318f565b5060010190565b60008261350457613504613238565b500690565b60006001600160a01b0380871683528086166020840152508360408301526080606083015261353b6080830184612c78565b9695505050505050565b60006020828403121561355757600080fd5b815161181f81612c1956fea26469706673582212200e1c39404a2c2e151cc23f53a67df086c7a6419198ad5b5f7cfbe61aaf7bcd5064736f6c634300080b0033089aa9975328102f8cdff40d2e2b75ad3b940f83f42c2e13c43ed875ff8f046a",
  "linkReferences": {},
  "deployedLinkReferences": {}
}